:020000040800F2
:1000000000C00020A5030008410E0008450E0008AE
:10001000490E00084D0E0008510E00085316000846
:10002000531600085316000853160008531600080C
:1000300053160008531600085316000865160008EA
:1000400053160008531600085316000853160008EC
:100050005316000853160008790F0008990F00087E
:10006000B90F0008D90F0008F90F0008E90C0008C3
:10007000010D0008190D0008350D0008510D00088C
:100080006D0D0008890D0008F50A000853160008D8
:10009000DD21000853160008531600081910000847
:1000A000491900086D19000891190008C9190008BC
:1000B0001D1A00088D1A0008FD1A000845130008D3
:1000C0005D13000851130008691300085316000857
:1000D00053160008491F0008991F0008E91F00086F
:1000E0005D1000085316000853160008251C000870
:1000F000491C00086D1C0008A51C00084D0B0008D9
:1001000053160008531600086D1B0008531600080C
:100110003920000889200008DD1B0008011C0008A8
:10012000A50D0008BD0D0008D50D0008F10D000853
:1001300010B5054C237833B9044B13B10448AFF321
:1001400000800123237010BD781000200000000003
:100150007065030808B5034B1BB103490348AFF3AF
:10016000008008BD000000007C10002070650308BE
:1001700010B512490A2309220968114800F0EAF96A
:1001800010490323022209680F4800F0E3F90F49E0
:100190001B231A2209680E4800F0DCF90D492B23B5
:1001A0002A2209680C4800F0D5F9BDE810400B4937
:1001B00032232C2209680A4800F0CCB984020020BE
:1001C0009410002088020020AC1000208C02002037
:1001D000C41000207C020020DC10002080020020DF
:1001E000F410002010B5044600F006FD034B204635
:1001F000BDE81040197800F067BC00BF1600002071
:10020000F8B50446056801F089FA002223685B010D
:1002100003F184431A6080232B600123AB622A61BF
:10022000EA606B61637973B1012B0FD001222368FF
:100230005B0103F18443C3F8802223685B0103F16F
:1002400084431A60F8BD4FF400436B644FF6FF72AD
:1002500000252368DA626E1CF7B23946204601F0A9
:1002600072FAE8B148F6FF72236817F0010F03F144
:10027000340343F8252014BF6FF0FF026FF47F4270
:1002800023684FEA650503F1180353F8251001EAC6
:10029000020114BF68224FF4D0420A4343F82520DC
:1002A000042E3546D7D1C1E77047000038B5002588
:1002B000264A274C1368022043F01003136000F015
:1002C000F9FE002001F0BAF865602368182023F4D5
:1002D0000023236001F0BEF8102001F0BBF800F00D
:1002E00043F8A560102001F0A9F8102001F0C0F833
:1002F0000028FAD000F039F8164801F0C5F81820A7
:1003000001F09CF8182001F0B3F80028FAD0022080
:1003100001F084F800214FF0006001F055F80E481C
:1003200001F098F900F038F80C4B188800F04CFCFC
:100330000B4800F04DFC0B4801F0CAF900F02EF814
:1003400000F02DF8FFF7B0FF38BD00BF00200240DD
:10035000001002400C0000203F1901001400002092
:10036000E5010008010200087047002108B50846B1
:1003700001F0CAF84FF48061012001F0C5F80021B6
:10038000022001F0C1F82D2001F0CEF8BDE80840B0
:100390000021032001F0B8B800F0A0BE704700F0C3
:1003A000DCBE000001498D460149084700C000201D
:1003B000B503000808B5114B1A68114B9A4213D1C6
:1003C000104B114A934213D32FF070F900221146BB
:1003D000104602F053FE0D4B7BB12EF003FF52F896
:1003E000041B043343F8041C09498B42F7D3E7E7A5
:1003F0000022043343F8042CE3E7FEE748D903085E
:100400000000002078100020283D0020E5F10208BF
:100410007810002010B50D4B1A680AB90C4A1A6002
:100420001A680C49891A814204DB09494442511A6D
:10043000A14207DA2EF0D0FE0C234FF0FF3203600A
:10044000104610BD10441860FAE700BF0C110020E0
:10045000283D0020E8370428002070474FF400535F
:1004600000204B607047012070474FF0FF3070470D
:100470000020704710B50C46FFF7FAFF20700120EE
:1004800010BD704770B515460C468E18B44201D1A8
:10049000284670BD14F8010BFFF7F3FFF6E7FEE7FF
:1004A000C38882889B1AC2888188914282BF028950
:1004B00001329B1898B2704710B50369044658681A
:1004C000FFF7EEFF88B123695B689A88196892B2DA
:1004D000885C99881A89C0B292B28A420FBF002202
:1004E0009A88013292B29A8010BD4FF0FF30FBE73C
:1004F00008B503695868FFF7D3FF08BD03695B6857
:100500009988DA8892B28A421FBF9A881B6892B291
:10051000985C14BFC0B24FF0FF3070470269916819
:100520008888CB889BB28342FAD1126813685B0635
:10053000FCD5704713B504698DF8071001220DF141
:100540000701204601F023FC0028F7D0012002B06B
:1005500010BD000030B54FF0000C4FF47A75C0E9C3
:1005600001C5034D016105600275437530BD00BFD3
:10057000207B03082DE9F74303690446DB688846BE
:100580008B42914625D3067D134D3601AB19477D2D
:10059000586818B10022597B01F08CF9206901F0EC
:1005A000ABFB39016A18127BAB19CDF804901B7BA9
:1005B000695800932069AB5901F065FC20694246F7
:1005C000002101F086FC206903B0BDE8F04301F092
:1005D000B9BB03B0BDE8F083E87703080022FFF75A
:1005E000C9BF0000044B02791B789A4202BF034B3B
:1005F0001B681860704700BF3011002034110020C4
:10060000002310B50446036072B6054B193119700A
:10061000044B1860044801F05BF862B6204610BD38
:100620003011002034110020E50500080022036885
:100630001B685B0103F184431A6070470122036861
:100640001B685B0103F184431A607047036801393A
:100650001B6889B29962704703681A68D36A9BB2B3
:10066000994228BF19465162704738B561B90122D5
:1006700003681B68996203681B68DA6203681B6879
:10068000DC6AA4B2204638BD48224A434FF6FF71C7
:10069000B2FBF1F1013189B202EB5102B2FBF1F28E
:1006A00094B2FFF7D3FF036892B21B68DA62E9E7FE
:1006B000012203681B685B0103F18443C3F88022B5
:1006C0007047000008B501211048FFF799FF02218B
:1006D0000F48FFF795FF03210E48FFF791FF042114
:1006E0000D48FFF78DFF05210C48FFF789FF062114
:1006F0000B48FFF785FF07210A48FFF781FFBDE898
:10070000084008210848FFF77BBF00BF10110020F8
:1007100014110020181100201C11002020110020AD
:1007200024110020281100202C110020F8B50646C5
:100730000C4615468F18A74206D0336814F8011BE3
:100740001B6830469847F6E72846F8BD70B5054661
:100750000C46084649B130F08BF82B68024621461A
:100760002846BDE870409B68184770BD0368C9B251
:100770001B68184703685B68184738B50D210546A4
:10078000FFF7F4FF0A2104462846FFF7EFFF204455
:1007900038BD38B50546FFF7EDFF04462846FFF79C
:1007A000ECFF204438BD2DE970439046994690B047
:1007B00058EA090306469DF8585007D13021FFF743
:1007C000D5FF0125284610B0BDE8708300244046BF
:1007D00049462A46002324F043FB804689460134DB
:1007E0000DEB040303F8012C58EA0903EFD10025AF
:1007F000013C1DF804103046092994BF30313731CF
:1008000049B2FFF7B3FF0544002CF1D1DAE72DE937
:10081000F0411D46002A75F1000307461446069E66
:1008200005DA2D21FFF7A2FF644265EB4505F6B21C
:10083000069622462B463846BDE8F041FFF7B3BF87
:1008400007B5CB1700920A46FFF7E1FF03B05DF84A
:1008500004FB38B50546FFF7F3FF04462846FFF7CB
:100860008CFF204438BD07B5CB1700920A46FFF72E
:10087000CEFF03B05DF804FB37B5CB1700920A46F4
:100880000546FFF7C4FF04462846FFF776FF2044DD
:1008900003B030BD07B5D2B2009200230A46FFF77D
:1008A00082FF03B05DF804FB37B5D2B2009200239B
:1008B0000A460546FFF777FF04462846FFF75DFF27
:1008C000204403B030BD00002DE9F34717461E4613
:1008D0008246002200233846314623F09FFE9DF8D1
:1008E00028504FF00104F8B143A3D3E90023384660
:1008F000314623F089FE00B90446E4B20022002309
:1009000038463146C4B123F06BFE18B12D21504654
:10091000FFF72CFF04463C495046FFF72BFF0444E9
:10092000204602B0BDE8F08735A3D3E9002338465E
:10093000314623F05FFEDEE723F052FE30B12D2179
:100940005046FFF713FF044606F100464FF000083B
:1009500000202E495FFA88F39D4206D900222C4BD5
:1009600023F0F6FC08F10108F4E73A46334623F099
:100970000FFA06460F4624F08BFA0A23024600932C
:1009800080460B4650468946FFF741FF0444002D40
:10099000C6D04046494623F083FB02460B4630460C
:1009A000394623F0F3F906460F4650461949FFF73A
:1009B000E1FE0444013DEDB2FF2DB1D0144B002205
:1009C0003046394623F09AFB0F46064623F030FEA8
:1009D0000A22014680465046FFF732FF0444404653
:1009E00023F022FB02460B463046394623F0CEF96F
:1009F00006460F46DEE700BF800350726C92DF436D
:100A0000800350726C92DFC33C7B03080000E03F20
:100A10000000244081A903089DF800100091FFF711
:100A200053BF37B59DF8181005460091FFF74CFFEE
:100A300004462846FFF7A1FE204403B030BD000065
:100A400030B504460D4687B0064901A82FF0FCFCDE
:100A500022462B4601A90A982FF0F6FC0A9807B007
:100A600030BD00BF4B7B0308322810B414D899B1B5
:100A7000012A0FD0022A0CBF02230023074A0001DB
:100A80001418125810790A460B38C1B2207B10BCDA
:100A900000F05CBA1346F1E710BC7047E877030832
:100AA000704710B50446007900F0FCFC2079BDE8E1
:100AB000104000F00FBD026841F48011936823F4E8
:100AC0006023194391607047002330B51C461D46D2
:100AD00003EB4302072B01FA02F203F10103D8BF33
:100AE00015430A2B44EA0204F2D10368DD6003686F
:100AF0001C6130BD70B5144C23681B681D68A907C4
:100B000007D51A6822F002021A6023689B6803B1B5
:100B100098476A0709D523681A68136823F0040305
:100B2000136023681B6903B19847EB070BD5236853
:100B30001A68136823F0010313602368DB6813B19C
:100B4000BDE87040184770BD1C00002070B5144C03
:100B500023681B681D68A90707D51A6822F00202DE
:100B60001A6023689B6803B198476A0709D5236810
:100B70001A68136823F00403136023681B6903B128
:100B80009847EB070BD523681A68136823F0010315
:100B900013602368DB6813B1BDE87040184770BD6F
:100BA00024000020012203685B0103F1844303F564
:100BB0008673191F1A6018680028FCD143F8042CAA
:100BC0000B68002BFCD170470146042000F09CBC50
:100BD00010B50446054B1868A047054B1868A04798
:100BE000044B18682346BDE8104018471C0000203D
:100BF000200000202400002010B50446FFF751FF1C
:100C000020464FF46021FFF756FF0122236820465B
:100C10005B0103F18443C3F8502123685B0103F1B6
:100C20008443C3F80021BDE81040FFF7BBBF007943
:100C300000F038BC14230139594300680830435888
:100C400023F4405343EA02324250704703681420B1
:100C50000833013900FB01314A60704700EBC103E2
:100C600040F8312093F90430002B08DB01225911A0
:100C700003F01F0302FA03F3014A42F821307047E0
:100C800000E100E014220368013902FB0131012375
:100C9000490101F18441C1F8003170471422036811
:100CA000013902FB01310023490101F18441C1F8FE
:100CB000003170472DE9F04114251C4690464B1E2B
:100CC0005D430668FFF7EAFF9DF81C30240244EA02
:100CD0008324089B08361C43069B77197451FB60DC
:100CE000C7F80880BDE8F08110B5044B1C68A36804
:100CF0001BB19847012223685A6010BD6000002094
:100D000010B5044B1C6823691BB198471022236857
:100D10005A6010BD6000002010B5054B1C68A36927
:100D200023B198474FF4807223685A6010BD00BF0A
:100D30006000002010B5054B1C68236A23B198475A
:100D40004FF4805223685A6010BD00BF600000203D
:100D500010B5054B1C68A36A23B198474FF4803245
:100D600023685A6010BD00BF6000002010B5054B1D
:100D70001C68236B23B198474FF4801223685A6094
:100D800010BD00BF6000002010B5054B1C68A36BB0
:100D900023B198474FF0807223685A6010BD00BF9E
:100DA0006000002010B5044B1C68A3681BB1984775
:100DB000012223685A6010BD6400002010B5044B66
:100DC0001C6823691BB19847102223685A6010BD24
:100DD0006400002010B5054B1C68A36923B1984737
:100DE0004FF4807223685A6010BD00BF6400002079
:100DF00038B5104C636CD8070BD52368D90408D5D7
:100E00000D4B1D682B6A23B198474FF480522B6815
:100E10005A60A36DDA070BD52368DB0308D5064BB0
:100E20001C68A36A23B198474FF4803223685A6044
:100E300038BD00BF00040240640000200000000034
:100E4000012007E0022005E0032003E0042001E088
:100E50000520FFE70D4A0121116072B60C4A0021FE
:100E60001160074902B4084902B486B005498E46AC
:100E7000704700BFAFF30080AFF30080AFF3008096
:100E800000000061F9FFFFFF4930000814ED00E0A9
:100E900010E000E070B505469DF810602948012E6D
:100EA00040F8352000EBC500436005F502241DD055
:100EB00015D3022E20D0284600F0F2F80123A4001A
:100EC00004F1844423600F2D22D8DFE805F01E22B0
:100ED00025292D3131313131353535353535012241
:100EE000A30003F18443C3F80021E4E7A30003F166
:100EF0008443C3F88061DEE70122A30003F1844349
:100F0000C3F80021C3F88021D5E740220E4B1A60B8
:100F100070BD0D4B8022FAE70B4B4FF48072F6E761
:100F2000094B4FF40072F2E7074B4FF48062EEE793
:100F3000054B4FF40002EAE74FF48072024B5A600F
:100F4000E6E700BF3811002000E100E007B500939C
:100F50000023FFF79FFF03B05DF804FB10B50F24DB
:100F600001F00301890003688C4023EA040302FABC
:100F700001F11943016010BD08B5054A136833B18A
:100F8000506898470122034B5A6100BF00BF08BD5B
:100F9000381100200004014008B5054A936833B1B8
:100FA000D06898470222034B5A6100BF00BF08BDBA
:100FB000381100200004014008B5054A136933B117
:100FC000506998470422034B5A6100BF00BF08BD17
:100FD000381100200004014008B5054A936933B177
:100FE000D06998470822034B5A6100BF00BF08BD73
:100FF000381100200004014008B5054A136A33B1D6
:10100000506A98471022034B5A6100BF00BF08BDC9
:1010100038110020000401402DE9F041002705248B
:101020000C4DD5F814800126A64018EA060F08D00A
:10103000094BE10053F834201AB10B44586890472B
:10104000374301340A2CEED16F6100BF00BFBDE809
:10105000F08100BF00040140381100202DE9F0416B
:1010600000270A240C4DD5F814800126A64018EA62
:10107000060F08D0094BE10053F834201AB10B4495
:101080005868904737430134102CEED16F6100BF90
:1010900000BFBDE8F08100BF00040140381100200E
:1010A00000F0FC030A46014601481844FFF756BF0A
:1010B00008000140034A136823F007031843106037
:1010C000704700BF0020024010B50446007900F0D0
:1010D000E9F92079BDE8104000F0FCB908B50748EF
:1010E000FFF7F2FF0648FFF7EFFF0648FFF7ECFFB8
:1010F000BDE808400448FFF7E7BF00BFD800002064
:10110000E0000020E8000020F000002070B50F256E
:101110000368CE0801F00700840053F82600092A6E
:1011200005FA04F520EA050514BF10460820A04082
:101130002843082A43F8260007D10120DA6800FA7C
:1011400001F122EA0101D96070BD092AFCD1012216
:10115000D86802FA01F10143F5E708B5032000F071
:10116000A1F9BDE80840032000F0B4B903681A688B
:1011700012F4985FFBD11A6842F480721A607047CB
:1011800003681A6812F4985FFBD11A6842F400727F
:101190001A600268136813F4985FFBD1704700006F
:1011A00070B502684568516992695A4AAE7812680A
:1011B000CB07044606F00106C26014D50023EB807D
:1011C00000F0D8F82268536843F48063536026B176
:1011D0002268136843F48063136000212B8822681F
:1011E00046EA4303136111F00A0F10D0AB88002EBA
:1011F00045D0012B0AD122682046136823F480636E
:101200001360A38B012B37D9FFF7B0FF002101F04A
:101210008402802A03D1A38B002B49D1002101F045
:101220008402842A0DD1A18B2046002954D0FFF7D7
:101230009DFF22685369D907FCD5002163680C33F0
:1012400063604B0661D52368AA681969EB88581C4E
:10125000E880D154AB88EA88591E8A424BD1226873
:101260002046136823F480631360A38B022B3ED9BE
:10127000BDE87040FFF77ABFFFF782FFC6E7012B9A
:1012800008D9EB88A9685A1CEA802268CB5C1361F4
:101290003146BCE7002BFBD12046FFF771FF2268E7
:1012A000536823F400735360022384F82330ADE7BE
:1012B000EB88A9685A1CEA802268CB5C1361EA8833
:1012C000AB889A42AAD12268536823F480635360A2
:1012D000A38B013BA383A1E7FFF752FF226853686A
:1012E00023F400735360022384F82330A9E7BDE898
:1012F0007040FFF745BF9A4207D1A38B013B9BB2D9
:10130000A3831BB9022384F8233070BD63680C33B8
:101310006360FAE7C03C002008B50268536903F433
:10132000706383600023536102689361FFF728FFB5
:101330000268536823F4E0635360FF2380F823308E
:1013400008BD00000148FFF72BBF00BFF8000020D8
:101350000148FFF725BF00BF1C0100200148FFF72F
:10136000DBBF00BFF80000200148FFF7D5BF00BF7A
:101370001C01002010B50446002190F9210000F066
:101380000FF894F922000021BDE8104000F008B8E1
:101390004AF6AA22014B1A60704700BF0030004095
:1013A0000028A8BF00F160404FEA0111B8BF054B0B
:1013B000C9B2B5BF00F00F0000F56140195480F8C4
:1013C0000013704714ED00E010B5002421F06041D7
:1013D00021F07F01064A0143916060B20F21013480
:1013E000FFF7DEFF3C2CF8D1F02382F8233010BD4C
:1013F00000ED00E00449054BCA6802F4E0621343C3
:10140000CB60BFF34F8FFEE700ED00E00400FA056C
:10141000014B13F810007047707B0308064B5A68A5
:1014200022F0030202435A6080005A6802F00C0264
:101430008242FAD1704700BF00100240030AC2B2D4
:10144000012003F1804303F50433196890400843F9
:10145000186070470121030A03F1804303F5043348
:101460001A68C0B201FA00F022EA00001860704762
:10147000030A03F1804303F504331A680223C0B260
:1014800003FA00F010407047054A0168536823F4DE
:1014900074130B43416809680B435360704700BFE6
:1014A0000010024010B50446FFF7B2FF074B53F897
:1014B0002020074800EB4400437803EBC2030122DD
:1014C0009B0003F184431A6010BD00BF400100205F
:1014D000707B030810B50446FFF79AFF084B53F8DA
:1014E0002020084800EB4400437803EBC2030122AC
:1014F0009B0003F184431A6000221A6010BD00BFF4
:1015000058010020707B030810B5054A054C53684C
:1015100054F8200023EA00030B43536010BD00BFC2
:10152000001002405C7B030810B50446FFF770FF13
:10153000074B53F82020074800EB4400437803EBA7
:10154000C20300229B0003F184431A6010BD00BF58
:101550004C010020707B030801EBC000800000F10B
:1015600084400260704710B504460079FFF79AFF87
:101570002079BDE81040FFF7ADBF012206210068C9
:10158000FFF7EABF002206210068FFF7E5BF10B5AC
:101590000C46016803464A6822F0E0024A6002688D
:1015A0001268624012F4205F01D0FFF7EBFF1A6867
:1015B00018461460BDE81040FFF7DFBF134343F047
:1015C00004031943FFF7E3BF01220068114604300A
:1015D000FFF7C2BF0068002201210430FFF7BCBF43
:1015E0000068012200210430FFF7B6BF0022036823
:1015F0005B0103F18443C3F880207047F8B51046BF
:10160000069C9DF81C709DF820609DF8245081B1C7
:101610000B2239462046FFF779FD04223146204649
:10162000FFF774FD0B2229462046BDE8F840FFF77E
:101630006DBD19460422FFF769FD04223946204694
:10164000FFF764FD0B2231462046FFF75FFD0422C1
:10165000E9E7FEE70722024B58601A60704700BFB7
:1016600010E000E0044A136801331360034B1B6869
:1016700003B11847704700BFC03C0020B8110020DC
:1016800011F0010F70B501F1FF340DBF08250025E1
:101690006FF0FF016FF47F410068C4F3400418301D
:1016A00050F8246013433140AB400B4340F82430E2
:1016B00070BD02684B1E02F1404220329B0003EBDA
:1016C000C20301229B0003F184431A6070470000AB
:1016D00010B504460948A0470948A0470948A04753
:1016E0000948A0470948A0470948A0470948A0471A
:1016F0002346BDE810400848184700BF8401002079
:10170000AC010020D0010020F401002018020020CC
:101710003C020020480200205402002010B504467C
:101720000079FFF7BFFE2079BDE81040FFF7D2BE79
:101730000023026813600268D3604279012A9CBFCB
:1017400002681362704703791E2B10D9212B0ED02B
:10175000202B0ED9222B01D0252B04D102298CBF9E
:101760000020012070474B1E58425841704701200D
:1017700070470020704700008B1C40F82320012395
:1017800042798B4010B5DB43EAB1012A41F65F6232
:1017900018BF01221340012204682361036803F18A
:1017A00040430C3301EBC3039B0003F184431A60F5
:1017B000427903793ABB072915D8DFE801F007150C
:1017C0001515151A1A1F41F6FF62E3E71A2B0CBF15
:1017D00019232C230122590903F01F0302FA03F3F2
:1017E000254A42F8213010BD1A2B0CBF1B232E2393
:1017F000F0E71A2B0CBF1A232D23EBE71A2B0CBF93
:1018000018232B23E6E71B3B0C2BECD801A252F844
:1018100023F000BF75180008491800084D1800088B
:10182000511800085518000859180008E717000853
:101830005D1800086118000865180008691800089C
:101840006D180008711800081D23C3E71E23C1E7A7
:101850003223BFE73623BDE73723BBE71823B9E7B9
:101860001923B7E71A23B5E72B23B3E72C23B1E7F6
:101870002D23AFE71C23ADE700E100E00022036861
:1018800003F140430C3301EBC3039B0003F184439A
:1018900002311A6040F82120704738B504460D46E1
:1018A00013460022FFF7ECFE29462046BDE83840EB
:1018B000FFF7FFBE38B543790546022B0C4615D01D
:1018C000042A13D8DFE802F003132A2D3A00FFF7A9
:1018D000D5FF0268631E02F1404220329B0003EBF9
:1018E000C20300229B0003F184431A6038BD00222A
:1018F000036803F140430C3301EBC3039B0003F186
:1019000084431A600823602221462846FFF7B8FE68
:1019100021462846BDE83840FFF7CBBE0023102201
:10192000F2E74FF2F11203689A61032203689A60AA
:10193000036801225B0103F18443D6E70122BDE87D
:101940003840FFF7AABF000010B5074A1468E368E3
:1019500021690B401B0606D5536A23B198472369BA
:1019600023F08003236110BD8401002010B5074AD5
:101970001468E36821690B40DB0706D5936823B13F
:101980009847236923F00103236110BD84010020DF
:10199000F8B50C4D2F68FE683B691E4016F04004F8
:1019A00003D02C6A0CB1A0474024B30604D5EB69E0
:1019B00013B1984744F020043B6923EA04043C61D6
:1019C000F8BD00BF84010020F8B5134D2F68FE68F4
:1019D0003B691E4016F0100403D0AC690CB1A0475F
:1019E0001024310704D56B6913B1984744F00804FB
:1019F000720704D52B6913B1984744F00404B30768
:101A000004D5EB6813B1984744F002043B6923EA1C
:101A100004043C61F8BD00BF84010020F8B51A4DF4
:101A20002F68FE683B691E4016F0400403D02C6A04
:101A30000CB1A0474024F30604D5AB6913B1984715
:101A400044F01004300704D56B6913B1984744F093
:101A50000804710704D52B6913B1984744F00404B6
:101A6000B20704D5EB6813B1984744F00204F307BA
:101A700004D5AB6813B1984744F001043B6923EAED
:101A800004043C61F8BD00BFAC010020F8B51A4D5C
:101A90002F68FE683B691E4016F0400403D02C6A94
:101AA0000CB1A0474024F30604D5AB6913B19847A5
:101AB00044F01004300704D56B6913B1984744F023
:101AC0000804710704D52B6913B1984744F0040446
:101AD000B20704D5EB6813B1984744F00204F3074A
:101AE00004D5AB6813B1984744F001043B6923EA7D
:101AF00004043C61F8BD00BFD0010020F8B51A4DC8
:101B00002F68FE683B691E4016F0400403D02C6A23
:101B10000CB1A0474024F30604D5AB6913B1984734
:101B200044F01004300704D56B6913B1984744F0B2
:101B30000804710704D52B6913B1984744F00404D5
:101B4000B20704D5EB6813B1984744F00204F307D9
:101B500004D5AB6813B1984744F001043B6923EA0C
:101B600004043C61F8BD00BFF4010020F8B51A4D33
:101B70002F68FE683B691E4016F0400403D02C6AB3
:101B80000CB1A0474024F30604D5AB6913B19847C4
:101B900044F01004300704D56B6913B1984744F042
:101BA0000804710704D52B6913B1984744F0040465
:101BB000B20704D5EB6813B1984744F00204F30769
:101BC00004D5AB6813B1984744F001043B6923EA9C
:101BD00004043C61F8BD00BF1802002010B5074A9C
:101BE0001468E36821690B40DB0706D5936823B1CD
:101BF0009847236923F00103236110BD3C020020B4
:101C000010B5074A1468E36821690B40DB0706D565
:101C1000936823B19847236923F00103236110BD22
:101C20004802002010B5074A1468E36821690B4098
:101C30001B0606D5536A23B19847236923F0800316
:101C4000236110BD5402002010B5074A1468E368F0
:101C500021690B40DB0706D5936823B198472369B8
:101C600023F00103236110BD54020020F8B50C4D90
:101C70002F68FE683B691E4016F0400403D02C6AB2
:101C80000CB1A0474024B30604D5EB6913B19847C3
:101C900044F020043B6923EA04043C61F8BD00BF22
:101CA00054020020F8B5134D2F68FE683B691E40B2
:101CB00016F0100403D0AC690CB1A0471024310712
:101CC00004D56B6913B1984744F00804720704D532
:101CD0002B6913B1984744F00404B30704D5EB68AB
:101CE00013B1984744F002043B6923EA04043C61C1
:101CF000F8BD00BF5402002000223F2110B5044669
:101D0000436810309A801860DA801981A3689A803D
:101D1000DA8004F1500219811A6094F89000FFF7FC
:101D2000C1FB94F99130002B08DB0122591103F01B
:101D30001F0302FA03F3024A42F8213010BD00BF2C
:101D400000E100E00368DA6842F02C02DA60DA6849
:101D500042F40052DA60704710B5036881688C88DD
:101D6000CA8892B2A242FAD1DA68910402D51A68FE
:101D70005206F9D5DA6822F40052DA604268938894
:101D80009BB2D380826893889BB2D38010BDF0B59C
:101D90000B4606460468B568581AAF88ED88ADB2A0
:101DA000BD4204D125682D0601D5824210D8E368D2
:101DB00023F08003E3609042B3680DD39A88DB88F8
:101DC0009BB293421EBFE36843F08003E360F0BD23
:101DD00013F8010B6060DEE7DD889F880135BD42A6
:101DE000ECD0DF881D89ADB2BD4203D19D88ADB274
:101DF000002DE3D0DD8811F800C01F68ADB207F8F0
:101E000005C0DF881D890130ADB2BD420FBF00257E
:101E1000DD880135ADB2DD80CDE7034682880168FB
:101E200092B2885C99881A89C0B292B28A420FBF76
:101E300000229A88013292B29A80704738B5C388DE
:101E400082880133934204460D4607D0C288038935
:101E50009BB2934214D183889BB28BB92046FFF783
:101E6000DCFFE38822689BB2D554E28823899BB2C9
:101E700093420FBF0023E38801339BB2E38038BD58
:101E80004FF0FF30EDE770B51E4605460846114697
:101E90000422059CFFF73AF90B229DF810103046FA
:101EA000FFF734F929686302CA6803F4F05322F497
:101EB000F0521204120C1343CB602A6824021369F7
:101EC00004F4405423F440531B041B0C1C431461C2
:101ED00070BD38B50546144611B900F0FDF801464D
:101EE00019235943A200B1FBF2F26421B2FBF1F0D5
:101EF00001FB10231B013233B3FBF1F303F00F039B
:101F00002C6843EA00139BB2A36038BD10B50446A9
:101F1000084B1868A047084B1868A047074B18687B
:101F2000A047074B1868A047064B18682346BDE832
:101F30001040184784020020880200208C020020F4
:101F40007C0200208002002010B5104CE368980647
:101F500007D52368990604D561680D48C9B2FFF713
:101F60006DFFE3681A060BD523681B0608D50948E0
:101F70008288C3889BB2934203D0FFF74EFF606014
:101F800010BDE36823F08003E360F9E70038014007
:101F9000EC110020F811002010B5104CE3689806F1
:101FA00007D52368990604D561680D48C9B2FFF7C3
:101FB00045FFE3681A060BD523681B0608D50948B8
:101FC0008288C3889BB2934203D0FFF726FF6060EC
:101FD00010BDE36823F08003E360F9E700440040AC
:101FE000041200201012002010B5104CE36898066F
:101FF00007D52368990604D561680D48C9B2FFF773
:102000001DFFE3681A060BD523681B0608D509488F
:102010008288C3889BB2934203D0FFF7FEFE6060C4
:1020200010BDE36823F08003E360F9E70048004057
:102030001C1200202812002010B5104CE3689806EE
:1020400007D52368990604D561680D48C9B2FFF722
:10205000F5FEE3681A060BD523681B0608D5094868
:102060008288C3889BB2934203D0FFF7D6FE60609C
:1020700010BDE36823F08003E360F9E7004C004003
:10208000BC110020C811002010B5104CE368980660
:1020900007D52368990604D561680D48C9B2FFF7D2
:1020A000CDFEE3681A060BD523681B0608D5094840
:1020B0008288C3889BB2934203D0FFF7AEFE606074
:1020C00010BDE36823F08003E360F9E700500040AF
:1020D000D4110020E011002008B590F89000FFF71F
:1020E00097F920B10128034818BF002008BD024815
:1020F000FCE700BF00A24A040051250230B548F2B7
:102100008005094C226822F4804222F070022A43A2
:1021100042402260236823F4E04323F040032B4332
:102120004B40236030BD00BF005C0040284B0728B7
:1021300018BF18701A78052A48D8DFE802F0031390
:102140001E232B364FF6FB71224A106C014011649E
:102150004FF43F41116406221A701F4B1B685A7BD3
:102160001A7370474FF6FB711A4A106C01401164E4
:102170004FF43F411164042202E002225A7003220C
:102180001A7006E05A78013AD2B25A705A78002A88
:10219000F1D070470F490A6C92B242F010020A6403
:1021A00005221A700A225A7070475A78013AD2B240
:1021B0005A705A78002AECD14FF6EF720549086C34
:1021C00002400A64044A1268517B11730622D7E761
:1021D000C43C0020005C0040740500202DE9F04163
:1021E0005F4D604A2B68546C1B68A4B223405E05A7
:1021F00006D56FF4806353645B4B1B685B6898473C
:102200002A6813682340980442BF6FF40051554B6D
:10221000596413682340D90406D56FF4C052514B5A
:1022200000205A64FFF782FF2B681A6822401205CB
:102230000FD54C490A6C92B242F0080042F00C02F1
:1022400008640A641A7B5A7303221A736FF4C0522B
:102250004A641A682240970542BF6FF40071414AF0
:1022600051641B682340DE0506D56FF480723D4B38
:1022700007205A64FFF75AFF2B681B681C40240490
:1022800003D5384C676C3B0401D4BDE8F0816FF492
:10229000004317F00F06636438D148F68003D4F882
:1022A000008018EA030FECD01FFA88F32F4D304E50
:1022B00003F440524FF4005003F0300320213380E8
:1022C0002A80FFF71BFFF80623680ED423F4E143AE
:1022D00023F070031B041B0C236000F09BFD31886E
:1022E0002888BDE8F041FFF709BF18F0800FEDD155
:1022F00023F070031B051B0D18F4006F236002D040
:1023000000F0A6FBEBE700F003FDE8E7B40004F102
:10231000804404F5B844276839040DD5236823F0B8
:1023200070031B051B0D23602A6806F18043926829
:10233000013B52F8233098473A06A2D5236806F1AC
:10234000804623F4E14323F070031B041B0C23603D
:102350002B68013E5B6853F82630984791E700BF31
:1023600074050020005C0040CC3C0020C63C0020EE
:10237000C83C0020800000F1804000F5B8400368B0
:1023800023F4804323F0700343F4004343F08003BD
:10239000594001607047000018B90722024B1B68C2
:1023A0001A820248704700BFD43C0020E405002098
:1023B0000022012110B5104B1B689A720F4B196453
:1023C0000F4908680260086804681C644FF4E05410
:1023D0005A640460086804681C644FF43F445A64FB
:1023E00004600868006818644FF48010054B18609A
:1023F0000B681A7310BD00BFD43C0020005C004085
:102400007405002000E100E013B5104B1A68137842
:1024100003F07F03212B16D1022808D0222801D0F7
:10242000022405E093780A4A03F0030313700024A2
:10243000084B1B6823B102A901F8010D022098473F
:10244000204602B010BD0224FAE700BFD43C0020B1
:10245000381200203412002021B901288CBF02203C
:102460000020704702207047054B1B689B78032BA8
:1024700004D8044901EBC30100F0BCBA0020704746
:10248000D43C0020CC050020014900F0B3BA00BFC5
:1024900088050020014900F0ADBA00BF900500207A
:1024A00037B5114C2268127802F07F02212A02D03F
:1024B000022003B030BDA0F12003012B0B4B0C4DCB
:1024C0001B6888BF002523B102A901F8010D022075
:1024D0009847002DECD0236800249D615C82204643
:1024E000A8472046E5E700BFD43C00203412002076
:1024F000992300082DE9F04700254FF0C00948F660
:102500008F1648F280074FF0400A434B434C1B683C
:10251000DFF838819D7283F8099025652368284685
:10252000334043F400732360236803EA08033B430A
:1025300083F010032360226D394B520043F802A050
:102540008022236D5B0003F1804303F5C0431A60D2
:10255000236823F4E24323F070031B041B0C236065
:10256000304B1B6893F82C1000F072F84FF4405178
:102570002846FFF7FFFEA3682946334043F4C063B3
:10258000A360226D284B520013444FF480721A60EE
:10259000A268022002EA08023A4382F02002A26006
:1025A000FFF7E8FEE36851463340E360226D1F4BBE
:1025B000520013444FF4887203201A6000F048F868
:1025C0004FF440510320FFF7D5FE636829461E40B3
:1025D0006660226D164B520043F80290636801203A
:1025E00003EA08033B4383F020036360FFF7C2FE66
:1025F0000122104B28461B681A7300F0EBFBFF22E8
:102600000D4B1D600D4B1D600D4B1D600D4B1D6076
:102610000D4B1A70BDE8F087D43C0020005C0040F0
:1026200008600040CC3C0020206000403860004042
:1026300010600040740500203C1200204012002071
:10264000481200204C12002044120020BF8FFFFFD0
:102650000D4B0E4A1B6D3E2903EBC0004FEA4000B4
:1026600002440AD94B09C80604BF03F1FF339BB2E9
:102670009B0243F40043136070474B08C90748BFEF
:1026800001339B02F7E700BF005C00400C60004094
:1026900010B5064C18B9012223681A8210BD044BEC
:1026A0001B681B68984720680A30F7E7D43C002075
:1026B000D03C002010B5064C18B9012223681A82BC
:1026C00010BD044B1B689B68984720680C30F7E7E7
:1026D000D43C0020D03C002010B51E4B1C680023C9
:1026E00010B90223238210BD1B48038021780246C3
:1026F00011F07F0112D1617A8C0644BF022303706E
:10270000037848064CBF23F0010343F00103137024
:10271000124B1B681B6998470F48E4E70129E2D078
:10272000022915D1217901F00F039B0003F18043A9
:1027300003F5B84309061B6805D503F03003102BD9
:10274000E6D10123E3E703F44053B3F5805FF7E7F5
:102750001846C8E7D43C0020CA3C0020D03C0020EA
:102760002DE9F843234FDFF8A0803D682C8AD4B9C7
:102770002E7A042E17D120490B78012B0ED11F4B36
:102780001A681F4B92B213445B001C6030230C701C
:10279000A8F800303B681E72BDE8F88310230726B6
:1027A000A8F80030F6E7AB8A9C4294BF04260226C4
:1027B0009C4228BF1C46AB692046984781460020B2
:1027C00000F0B4FB22460146484600F052FB214689
:1027D000002000F0C7FB2B8A4FF440521B1B2B82BA
:1027E0006B8A1C443023A8F80030064B6C821A8098
:1027F000D0E700BFD43C002050120020505C0040C5
:1028000002300020C63C0020C83C002010B50A4B16
:102810000A491B6849789A7891420AD3D97841B914
:102820009C8834B99A72064B1B685B6898472046AF
:1028300010BD0220FCE700BFD43C0020C8050020EA
:10284000D03C002038B50F4A0F4D12682B689269B2
:102850009978187990472B6804469A7A7AB170B9BA
:102860005A7962B9DB7853B9084B1B68DB68984723
:102870002B681A79DA729A781A73204638BD0224C6
:10288000FBE700BFCC3C0020D43C0020D03C002023
:1028900038B52B4B1B68187810F07F0004D15A7A9A
:1028A00022F020025A7238BD022847D15A88002AE5
:1028B000F9D15A79002AF6D11979224D21F08000F8
:1028C000840004F1804404F5B844226849B22D78AC
:1028D0000029B4BF02F0300202F4405285422DD9E3
:1028E00062B39B7A53B30029236811DA03F03003F3
:1028F000102B07D1C4B2204600F004FB3021204643
:1029000000F0D8FA104B1B685B6998470020CAE7B3
:1029100003F44053B3F5805FF4D10C4D58B90C4B20
:1029200093F82C1000F02CFB23682B409BB283F40F
:1029300040532360E6E700F0D2FAF5E70220B2E761
:10294000D43C0020C8050020D03C00208FBFFFFFF2
:102950009805002038B51B4B1B4D18682D78017960
:1029600021F08004A30003F1804303F5B8431A6803
:1029700049B20029B4BF02F0300202F44052A5422D
:102980001DD94488DCB9D2B1827AC2B11A68002953
:10299000B5BF22F4E04222F4804222F0400222F04D
:1029A0007002B5BF92B292B282F0100282F48052ED
:1029B0001A60064B1B689B699847002038BD0220AF
:1029C000FCE700BFD43C0020C8050020D03C00201C
:1029D00008B5064B1A68537A43F020035372044B30
:1029E0001B68DB699847002008BD00BFD43C00206D
:1029F000D03C002010B5054B1C68628A18B98B8842
:102A00009B1A238210BD08681044FBE7D43C0020C9
:102A100008B50B4B002093F82C1000F0B1FA094BCD
:102A20001B68187A082806D14FF48052064B1A808A
:102A30001022064B1A80A0F109035842584108BDE4
:102A400098050020D43C0020C63C0020C83C002053
:102A500073B5964C964E216832680B7A092B16D0C6
:102A6000944B92B213445B001B885B0003F18043DC
:102A700003F5C0431A780A70597822685170998812
:102A8000226851801989226891809B89D380012214
:102A900023681A72DA885D78002A64D11A7812F0F5
:102AA0007F024DD1092D03D1FFF7B0FE40BB16E0E8
:102AB000052D20D193F90220002A07DA0823226885
:102AC000137202B0BDE87040FFF7A2BFDA78002AA7
:102AD000F4D19A88002AF1D19B7A002BEED132688A
:102AE000754B92B2134400225B001A603022734B84
:102AF0001A800623E3E7032D14D19A78012A08D01F
:102B00006F4B28461B685B699847032828D1092327
:102B1000D5E79A88002AF3D15B7A9A06F0D5FFF7B9
:102B200057FFC3E7012DEBD19A78012AE8D19A88A3
:102B3000002AE5D15B7A9B06E2D5FFF7A9FEB5E74F
:102B4000012A04D10B2DDBD1FFF77CFEAEE7022A70
:102B5000D6D1012DF1D0032DD2D1FFF7FBFEA5E791
:102B60000028ABD1BBE7062D12D11A7855065AD1F1
:102B7000DB78534A012B126802D1D369DBB952E0EA
:102B8000022B01D1136AF9E7032B4CD1536AF5E705
:102B9000002D54D15988002945D15A6822F0FF02EE
:102BA000B2F5003F3FD11A7812F07F0216D19B8810
:102BB000002B38D1434B002522682846558293616B
:102BC000984728464FF6FF7123681A8A8A4233D005
:102BD000022801D0002A55D108222EE0012A0AD16C
:102BE000374A1879126892699047E0B923689B7A4E
:102BF000002BDFD117E0022A15D11A7902F00F015C
:102C00008B00100603F180432F4803F5B8431B687F
:102C100000784CBF03F0300303F44053884202D9DC
:102C200012F0700FE4D0264B22681B6850781B69A5
:102C300098470328C6D1236809221A7241E7082D54
:102C400004D11B785B06EED1204BB4E70A2DEAD104
:102C50001A7802F07F02012AE5D19A7A002AE2D09E
:102C600059880029DFD15A6822F0FF02B2F5803F6F
:102C7000D9D1134A18791268926990470028D2D1A5
:102C8000134B98E793F90010002936DAD9880C4CD9
:102C900001910198246882421CD9019A1A8294F801
:102CA0002C209A82FFF75CFD0BE700BFD43C00208C
:102CB000505C00400430002002300020C83C00205E
:102CC000CC3C0020D9260008C80500209126000829
:102CD000B52600088A42E2D294F82C00824203D240
:102CE0000021094A1170DAE792FBF0F100FB112292
:102CF000002AD4D1044A0121F4E703221A724FF4C6
:102D00004052024B1A80DCE650120020C63C0020E4
:102D1000F8B52A4E3468237A032B01D0052B44D111
:102D2000A369B3B1258AA5B1A28A954228BF1546E9
:102D300028469847238A07465B1B2382638A002024
:102D40002B44638200F000F92A460146384600F021
:102D50009FF8238A53B100214FF44052184B084684
:102D60001A8000F0FFF83022164B1A80228AA18ABE
:102D70003368914209D803221A7233681B7A326889
:102D80001372BDE8F840FFF743BE0AB10522F3E72E
:102D9000062119720C4B19680C4B89B20B445B006D
:102DA0001A603022074B1A80E7E7072B03D1084B44
:102DB0001B68DB6898470823E1E700BFD43C00208C
:102DC000C63C0020C83C0020505C0040023000207F
:102DD000CC3C0020002210B50C4B1C78A24204D33E
:102DE0000B4B40F08000186010BD02F1805303F5DA
:102DF000B8539B00196821F4E04121F070010904E7
:102E0000090C114319600132E8E700BFC805002032
:102E10004C5C004010B5134C23681A7A022A01D08A
:102E2000042A09D1FFF79CFC23681B7A22681372DD
:102E3000BDE81040FFF7ECBD062A10D15A78052AEC
:102E400009D11A78520606D19878FFF7C3FF064BCE
:102E50001B681B6A9847054B1B689B6898470823AB
:102E6000E4E700BFD43C0020D03C0020CC3C002054
:102E7000704701F10051013201F5405152104900F3
:102E800002B9704730F8023B013A21F8043BF7E7FA
:102E9000002310B501F10051013201F540515210EB
:102EA00049009A4200D110BD51F8234020F8134048
:102EB0000133F6E7800000F1804000F5B840036878
:102EC000CA0623F4E04323F040039BB248BF83F0DB
:102ED00010038A0648BF83F0200303607047800018
:102EE00000F1804000F5B84003685B0409D5036831
:102EF00023F4E04323F070031B041B0C43F48043D2
:102F000003607047800000F1804000F5B84003681E
:102F10005B0609D5036823F4E04323F070031B0428
:102F20001B0C43F04003036070470000054B1B6817
:102F30009BB203EBC00000F1005000F54050400090
:102F400000887047505C0040044B1B689BB203EB49
:102F5000C000034B03445B0018887047505C00407E
:102F600004300020044B1B689BB203EBC000034BF2
:102F700003445B0019607047505C00400230002041
:102F80000D4B0E4A1B683E299BB203EBC000024466
:102F90004FEA42020AD94B09C80604BF03F1FF33C6
:102FA0009BB29B0243F40043136070474B08C90770
:102FB00048BF01339B02F7E7505C00400630002019
:102FC00013B504468DF8071001220DF107012046C4
:102FD000FEF7DDFE0028F7D002B010BD38B505467B
:102FE0004C1E14F9011F01B938BDC9B22846FFF7BC
:102FF000E7FFF6E708B5134B03221C6801212046C2
:10300000FEF784F8002301211A46B2F5007F0CD0A8
:1030100072B1B3F5007F01D100230A449A420CD962
:103020000225206805610133EFE74FF0FF31F0E73B
:10303000B3F5007F4FF00101EED020684FF400356A
:10304000F0E700BF587B030808B5034B0BB100F055
:1030500045F862B6FFF7CEFFDD30000808B5044B37
:1030600023B100F05BF80349FFF7B8FFFFF7ECFF6F
:103070001D310008437C0308FDF718B908B500F0BE
:10308000B3FF01F0A3F8FCE72CF056BB32280BD8B5
:10309000064B03EB001043681A68437B343203F19C
:1030A0008043013B42F82310704700BFE8770308D4
:1030B00038B50C460546072104EB042400F046F819
:1030C000A1B22846BDE83840FFF7E0BF0022036800
:1030D0005B0103F18443C3F8002170474FF0FF33D5
:1030E00010B50A4C0A48C4F88030C4F88430FEF7A2
:1030F000EFFA0848FDF76CFD0748FEF707FF4FF4AD
:10310000002323604FF48013236010BD00E100E032
:1031100031170008CD300008591D000810B5094BC3
:10312000094C18680B220221FDF7F0FF2068FEF71A
:10313000E3FD20684FF416520021FEF7CAFE206816
:1031400010BD00BF547B030888020020322838B528
:103150003BD8082939D8DFE801F00529171A1D20C6
:103160001723260000240322184B00011D18297B79
:103170001858FDF7CBFF686838B3697BCCB1BDE860
:1031800038400122FEF796BB00240422ECE700241D
:103190002246E9E700240922E6E700240822E3E7C3
:1031A00001240B22E0E701240F22DDE7002407229F
:1031B000DAE702684B1E02F1404220329B0003EB2B
:1031C000C2039B0003F184431C6038BDE877030809
:1031D00008B501211048FDF713FA02210F48FDF749
:1031E0000FFA03210E48FDF70BFA04210D48FDF7F5
:1031F00007FA05210C48FDF703FA06210B48FDF7F5
:10320000FFF907210A48FDF7FBF9BDE8084008214E
:103210000848FDF7F5B900BF5412002058120020ED
:103220005C1200206012002064120020681200204E
:103230006C1200207012002032280DD8074B0001BC
:1032400019181B58097B1B689A6801238B4013428D
:1032500014BF01200020704700207047E877030862
:10326000322810B50ED8084B00011C181B58B1FAB3
:1032700081F11A680123207B49098340090103FA7F
:1032800001F1116110BD00BFE877030808B12CF00F
:10329000E1BE704710B5044628B12CF0E3FE90FB68
:1032A000F4F303FB1404204610BD884210B5044615
:1032B00003DA081AFFF7EEFF0444204610BD0000B1
:1032C0000A4A0B4B11689B6800BF00BF12688A4214
:1032D000F6D14820C3F58C3303F5A073B3FBF0F3AC
:1032E0004FF47A7000FB0230704700BFC03C0020F2
:1032F00010E000E038B50446FFF7E2FF05465CB198
:10330000FDF7CEFBFFF7DCFF401BB0F57A7FF6D36D
:10331000013C05F57A75F5D138BD28B10C2343433E
:10332000013B18460138FDD8704700000449054BA1
:10333000CA6822F4E0621204120C1343CB60704797
:1033400000ED00E00003FA05704770470120704768
:1033500013B5104C204620F0DAFC2046042120F062
:103360006FFC204601220C4920F06EFC0023012254
:103370000A4900932046A02320F0CCFC204620F0F0
:10338000BFFC204620F0AEFC204602B0BDE8104055
:1033900020F0AFBC78120020687C03087612002071
:1033A000242805D1034B044A1B88C3F389031380E7
:1033B000704700BF7612002074120020044B03EB0C
:1033C00000135B6813B1C0B2FFF772BE704700BF55
:1033D000E8770308FEF70EB8024B0348196820F09F
:1033E0002DBC00BF1C0000207812002010B5074C37
:1033F000032294F84C10206CFDF788FE236C94F89F
:103400004C101A6801238B40136110BDE877030844
:10341000062838B58CBF00250A4B0B4C98BF1D5CA5
:103420002046E46600F03FF92946204600F04DF9B9
:103430002046012100F056F92046BDE83840002121
:1034400000F05DB9697C030888120020FF21014863
:1034500000F06AB9881200200B460246002101489C
:1034600000F01ABA881200200146014800F09CBA08
:103470008812002070B50D46064C0146204600F02B
:1034800093FA29462046BDE8704001234FF40072AC
:1034900000F07EBA8812002001398B0001210268F9
:1034A00099405160704703689A689107FCD59A6803
:1034B0001206FCD47047436823B1417B00221846B2
:1034C000FEF7F8B970470000172806D0182806D074
:1034D0001628044818BF0020704703487047034867
:1034E000704700BF34D9030838D903083CD9030812
:1034F0002DE9F04F814687B000798A46FFF7E4FF57
:1035000060B30578174C46782D012B198778360162
:1035100090F8038006EB040B1846059304EB07179D
:10352000FFF7C9FF5846FFF7C6FF04EB08183846F7
:10353000FFF7C1FF4046FFF7BEFF98F80C20059B40
:1035400051461B7B03923A7B484602929BF80C2023
:103550000192325900922A59FEF750F807B0BDE89F
:10356000F08F00BFE877030810B50C46FDF750FF59
:1035700090B10228094B88BF002300225B089C42BF
:10358000D0B205D20132072A4FEA5303F7D11046D1
:10359000034B0344187B10BD024BEEE700A24A0424
:1035A00034D90308005125022DE9F04103460446B1
:1035B0006C302C4D00221D6001255A731D735A601A
:1035C000C3E9072224339842F3D124224B1E02FB85
:1035D00003430229E366DFF8AC80234E39D0032988
:1035E0003CD0A94201D1214B1C60214B214F1B68CB
:1035F000216823611879FFF7B7FF3B680225A361B3
:1036000003236375D8F80030A06063632575616A91
:103610001879FFF7A9FF3B68E062E363052384F8AC
:103620003930042384F838303368A16CA3651879E5
:10363000FFF79AFF104B00221B68206523660123C9
:1036400084F85C30E36E84F85D50DA732046BDE8A0
:10365000F081D8F800306363084BC5E73368A36591
:10366000074BC1E700093D0068010020F812002067
:10367000600100206000002064000020FC12002097
:103680000013002064010020C06E037B4268012B00
:103690000CBF0023802342F440721343017A427B23
:1036A0000069FDF78BBF10B50446C36E1869FDF7BE
:1036B0005AFFE36E01211869FFF71AFF2046FFF752
:1036C000E3FF0122E36EDA7310BDC36E9960C36E2F
:1036D00001F038011B691A68136823F03803194395
:1036E00011607047C36E1973C36E1B691A68136843
:1036F00023F0800309B943F0800313607047C36E61
:103700005973C36E01F003011B691A68136823F033
:103710000303194311607047C36E1B691B68D960AE
:10372000C36E1869FFF7BFBE10B5C36E1C6923686E
:103730002046DA68D960FFF7B6FE2368D868C0B2C1
:1037400010BD0000F0B50546C36E85B098691746F8
:103750000E46FDF76CFAE86E4468017DA4F500633F
:103760005C425C4103691A688223CDE901430097FA
:1037700023460C328069FDF79DFAE86E0369417DAE
:103780001A68C6B91023CDE901430D4B00932346B7
:103790000C328069FDF78EFAEB6E0022597D986934
:1037A000FDF748FA0322EB6E197D986905B0BDE874
:1037B000F040FDF73FBA90230096CDE90143E6E7DC
:1037C000707C030870B504460D4611B900252846E3
:1037D00070BDC36E1A6912689168CE0748BFD2687F
:1037E0000422DA73C36E2A46197D9869FDF72EFA12
:1037F000E36E2A46597D9869FDF728FAE36E197D34
:103800009869FDF73FFAE36E597D9869FDF73AFA3A
:10381000E36E1869FDF7E4FEE36E1869FDF7D4FE68
:10382000E26ED369002BD1D193691A491E68537D8A
:103830000D68013B9B00DBB23068D840800727D47D
:103840000868401B6428F7D902251069FFF72BFE92
:10385000E36E1869FDF7BEFEE36E1869FDF7C6FE5C
:10386000E36E597D9869FDF719FAE36E197D986941
:10387000FDF714FAE36E197D9869FFF70DFEE36E0C
:10388000597D9869FFF708FE0122E36EDA739EE71F
:103890000025DAE7C03C002038B504461D46FFF796
:1038A00051FF29462046BDE83840FFF78BBF7FB562
:1038B000054614460E46C36EE4019869FDF7B7F954
:1038C000E86E44F012044368417DA3F50062534260
:1038D000534102691268CDE9013400960C328069C7
:1038E000FDF7E8F90022EB6E597D986904B0BDE858
:1038F0007040FDF79FB9000070B504460D4611B940
:103900000025284670BDC36E597D9869FFF7C4FD38
:10391000E36E2A46597D9869FDF798F90322E36E14
:10392000DA73E36E597D9869FDF7ACF9E36E1869B7
:10393000FDF74AFEE26E136A002BE1D19369134949
:103940001E68537D0D68013B9B00DBB23068D84098
:10395000800719D40868401B6428F7D9022510692C
:10396000FFF7A1FDE36E1869FDF734FEE36E597DA4
:103970009869FDF793F9E36E597D9869FFF78CFD1F
:103980000122E36EDA73BCE70025E8E7C03C0020C3
:1039900038B5044615461A46FFF789FF29462046E2
:1039A000BDE83840FFF7A8BF08B5FFF7B5FE012016
:1039B00008BD000001210148FFF7F6BD8812002074
:1039C000084B186803F178420749A2F57C32505041
:1039D000064A04339342F4D10022054B01201A70A9
:1039E000704700BF00F00308041300200000040823
:1039F0000423002070B5164D2C783CB320F00AF952
:103A0000144820F0BFF8052805D020F00FF9002356
:103A10002B70204670BD104820F0B4F80528F4D172
:103A20000C4E0E4A06F17843A3F57C33D15A30464A
:103A300020F0CAF8052804D0002420F0F7F82C70F4
:103A4000E7E7074B02369E42EBD1DEE70124E0E7D1
:103A50000423002000F0030800F8030804130020EA
:103A600000000408F8B505460024944206D0094E2B
:103A70000F5D2868264437540134F6E70120064AD2
:103A80001070A2B2184614F029FC2B6800201C44C8
:103A90002C60F8BD041300200423002070B51546E7
:103AA0009DF8102004465AB901680A4A1144AAB286
:103AB000184614F013FC226800202A44226070BDCE
:103AC0000022AA42F3D0034E20681644305C88548A
:103AD0000132F6E7041300200228F8B506460D4629
:103AE00039D0052836D100262C4C0222236801212A
:103AF0005B0103F184431E602046FDF7DBFE28498D
:103B00004FF6FF70B1FBF5F11122814228BF01464B
:103B100023685E629A62D8629A69204622F0FF02A8
:103B20009A6159635B0103F184430121DE611D4AFF
:103B3000FDF722FE01213220FDF732FC012223682D
:103B40005B0103F18443C3F8802223685B0103F126
:103B500084431A60F8BD0027134C024623680121F4
:103B60005B0103F184431F602046FDF7A3FE40F292
:103B7000E73223680D495F62B1FBF5F19A624FF6B7
:103B8000FF72914228BF1146DA6220465963084A03
:103B90000121FDF7F1FD31461C20CDE71802002080
:103BA00000093D0001EE0108AC01002040190100B0
:103BB0001DFD010802280CD005280CD1074B1B68FD
:103BC0005B0103F18443D3F88401003018BF012066
:103BD0007047034BF3E70020704700BF1802002036
:103BE000AC010020013807289ABF024B53F820008F
:103BF00000207047747C0308FDF7CABB7047036858
:103C0000C9B21B68184700000023054A9A56824231
:103C100004D00133152BF8D10020704701207047E4
:103C2000077E030808B500F011FBBDE80840014815
:103C300000F0E6BA057D030808B518F0EFFB18F0B0
:103C40005BFCFE2017F032F8BDE8084016F0F2BF2A
:103C5000054BD3F8D02293F8DC124FF4803312686E
:103C60008B401361704700BFE87703080E4AD2F813
:103C7000803092F88C101868012303FA01F10904CE
:103C80000161D2F81011086892F81C1103FA01F1D1
:103C900009040161D2F8201292F82C22096893409D
:103CA0001B040B61FFF7D4BFE87703087047704728
:103CB000012130B5114BD3F88020106893F88C2087
:103CC00001FA02F202610E48027822F00104047047
:103CD000D3F81041256893F81C4101FA04F42C61D3
:103CE00022F003040470D3F8204293F82C322468A5
:103CF000994022F007022161027030BDE877030885
:103D0000C72C0020074B1B784BB9074B93F90000D9
:103D1000012805D0054B1878C0F3800070470020BB
:103D2000704700BFAC240020A82C00205C3B002082
:103D30000B4B1B788BB90B4B93F90030022B0CD03B
:103D4000094B1B78C3F3C00040B1084AD07828B1B2
:103D5000C3F3800080F0010070470120704700BF6E
:103D6000AC240020A82C00205C3B00203C3B002021
:103D700010B5FFF7DDFF044660B9084B1860084B2B
:103D800018704FF0FF3001F06FFB0022054B1A60F6
:103D9000054B1C60BDE8104019F076BE5C24002085
:103DA00058240020E42C00200C2C002008B51DF025
:103DB000C5FF09F0CFFBFFF73FFF19F07DFE1BF0B9
:103DC000DDFC002108461BF019FB0022034B0448D0
:103DD0001A70BDE8084009F063BC00BFF005002080
:103DE000C27C030810B540F2E9330446013B08D019
:103DF00000BF00BF00BF42F62F22013A00BFFCD136
:103E0000F4E772B640F2E933013B08D000BF00BFCF
:103E100000BF41F29312013A00BFFCD1F4E71BF05E
:103E2000ADFC0CB1FFF744FFFFF7E6FEFCE7000036
:103E30000D460446164608B51BF0A0FC00F006FA35
:103E4000074800F0DDF907490748002D18BF29464B
:103E5000002C18BF204613F0DFFE3046FFF7C2FFEC
:103E6000147D0308B57C0308FE7D030870B53F4B45
:103E700005461B78032B01D809F03AFF3C4B3D4A1D
:103E80001B68146813B33C4909680B44E31A002B00
:103E90001CDB00F0DBF9394B394C1968394800F06C
:103EA000DBF994F900200AB17F2A03D10A213648B0
:103EB000FFF7A5FE94F900301BB10A213348FFF744
:103EC0009EFE002211461046FFF7B2FF304B1B68E2
:103ED00043B1304908783049097888420ED01268D9
:103EE000254B1A602D4D02F0B7FC2B68E31A002B0E
:103EF00003DB643418F0B0F92C6070BD284A1178E7
:103F0000284A79BB75BB1C4909680B44E31A002B8E
:103F100028DB1378002BE5D101231370224AD2F855
:103F20008010086892F88C1003FA01F101611F48B3
:103F3000017821F001050570D2F810512E6892F831
:103F40001C5103FA05F5356121F003050570D2F81F
:103F5000205292F82C222D68934021F007012B610A
:103F60000170BFE700231370BCE700BFC428002026
:103F700010230020C03C0020F0260020FC2600205A
:103F800017230020C87C030894100020AC100020E8
:103F9000EC0500201A3400201B34002008230020E8
:103FA000AC2400200C230020E8770308C72C002055
:103FB00010B5044613F06EFE07F042FF2046FFF7EF
:103FC00055FF1BF0FFFC19F02FFD14F011F9FFF75E
:103FD000BBF9044B1B781BB9BDE810401CF0D4B9E9
:103FE00010BD00BF1423002037B5FFF79FF9624AC8
:103FF000136823F0E06343F0007313601AF0CEFF00
:104000004FF4E1315D48FCF7E9FA4FF4E1315C48E7
:10401000FCF7E4FA5B4B5C481A681B6800F0F0F8A8
:1040200000F00EF9FFF792F9C507044602D557488C
:1040300000F0E6F8A00702D5554800F0E1F8610766
:1040400002D5544800F0DCF8220702D5524800F0AF
:10405000D7F8A30602D5514800F0D2F8504CFFF72C
:1040600074F9504800F0CCF894F900300BB17F2B74
:1040700003D120214148FFF7C2FD94F900301BB164
:1040800020213F48FFF7BBFD474800F0B9F894F9FD
:1040900000300BB17F2B03D10A213848FFF7AFFD69
:1040A00094F900301BB10A213548FFF7A8FD00F054
:1040B000C7F83E4800F0A4F800F0C2F83C4800F011
:1040C0009FF800F0BDF80020FCF7A4F90DF10701FE
:1040D000091A384800F0FAF84FF4D861364800F071
:1040E000F5F894F900300BB17F2B03D10A21234856
:1040F000FFF785FD94F900301BB10A212048FFF736
:104100007EFD2E4C13F012FD0BF04AF81EF094FACF
:10411000237823B916F06AFB08B101232370284CD9
:10412000284D2168286820F021FB696820606068BC
:1041300020F01CFBA9686060A06820F017FBA0605D
:1041400016F078FD20481BF087FA14F0D3FD19F023
:10415000B3FB13F089FF16F011FD1AF063FA00208B
:1041600016F030FDFFF74AFD01231A46194618469E
:1041700001F0B4FE03B030BD0400014094100020F3
:10418000AC100020C03C002079B80308347D03083F
:104190003D7D03084E7D0308607D0308717D0308A3
:1041A00017230020827D0308897D0308907D030882
:1041B000C17D0308D87D0308E77D0308052300209F
:1041C00034060020E82C00202F37002008B50020FE
:1041D000FFF7EEFE1EF080FA054B1B785B0601D55B
:1041E000FFF7E4FD09F092FBBDE8084016F074BB50
:1041F0005C3B002001481DF079BB00BF0D2300206F
:1042000070B5054615F9014B94B10A4E96F9003088
:104210000BB17F2B03D121460748FFF7F0FC96F93D
:104220000030002BEED021460448FFF7E8FCE9E718
:1042300070BD00BF1723002094100020AC10002098
:104240000148FFF7DDBF00BF2E7E03080148FFF7DE
:10425000D7BF00BF277E030838B50B4C0D46FFF7CC
:10426000CFFF94F900200AB17F2A03D129460748DD
:10427000FCF780FA94F900302BB12946BDE83840AC
:104280000348FCF777BA38BD1723002094100020AC
:10429000AC10002038B50A4C0D46FFF7B1FF94F979
:1042A00000200AB17F2A03D129460648FFF7A7FC60
:1042B00094F900301BB129460348FFF7A0FC38BD34
:1042C0001723002094100020AC10002038B50C4CAF
:1042D0000D46FFF795FF94F900200AB17F2A04D11B
:1042E0000A2229460748FCF7ABFA94F9003033B1AB
:1042F0002946BDE838400A220348FCF7A1BA38BD78
:104300001723002094100020AC10002038B50C4C6E
:104310000D46FFF775FF94F900200AB17F2A04D1FA
:104320000A2229460748FCF79EFA94F9003033B177
:104330002946BDE838400A220348FCF794BA38BD44
:104340001723002094100020AC10002037B5114C2A
:104350000D46FFF755FF94F900200AB17F2A09D1D5
:1043600028461FF073FE0223024600930A480B46BC
:10437000FCF752FB94F900304BB128461FF066FE63
:1043800002230246009305480B46FCF745FB03B0A9
:1043900030BD00BF1723002094100020AC10002077
:1043A00038B50C4C0D46FFF72BFF94F900200AB1ED
:1043B0007F2A04D10A2229460748FCF76BFA94F9B0
:1043C000003033B12946BDE838400A220348FCF7E3
:1043D00061BA38BD1723002094100020AC100020D3
:1043E00038B50446013CE4B2FF2C12D0094D95F9D2
:1043F00000300BB17F2B03D120210748FFF7FFFBD3
:1044000095F90030002BEDD020210448FFF7F7FB91
:10441000E8E738BD1723002094100020AC100020DE
:10442000034A044B002814BF10461846FFF7E8BEA5
:104430002C8C0308388B030810B50A4CFFF7F0FFEB
:1044400094F900200AB17F2A03D10A210648FFF718
:10445000D6FB94F900301BB10A210448FFF7CFFBCB
:1044600010BD00BF1723002094100020AC100020C6
:10447000034A044B002814BF10461846FFF7C0BE7D
:104480001C7E0308217E0308F8B507460E46154634
:104490001846069CFFF7B4FE39681148FFF756FF2F
:1044A00031681048FFF752FF29680F48FFF74EFFA9
:1044B00024B12046BDE8F840FFF7A2BE0B4C94F9AA
:1044C00000200AB17F2A03D10A210948FFF797FB90
:1044D00094F900301BB10A210648FFF790FBF8BDA4
:1044E000B97C0308BC7C0308BF7C030817230020A9
:1044F00094100020AC10002010B50446322C06D9D0
:104500003220323CFEF7F6FE1BF05CFAF6E720465E
:10451000FEF7F0FEBDE810401BF054BAF7B5814C31
:104520008148FFF76DFE8148FFF76AFE21688048E9
:10453000FFF70CFF61687F48FFF708FFA1687E481E
:10454000FFF704FF25680021284620F0D3FB002850
:1045500000F0B8807948FFF753FE656800212846CF
:1045600020F0C8FB002800F0BD807548FFF748FE2A
:104570007448FFF745FEA4680021204620F09CFB0C
:10458000002800F0BF807048FFF73AFE6F48FFF741
:1045900037FE6F48FFF734FE6E4B6F4C1B78002BD5
:1045A00000F0BB806D4D6E48FFF72AFE2E6800219B
:1045B000304620F077FB98B931466A48FFF7C6FECF
:1045C00094F900300BB17F2B03D10A216648FFF725
:1045D00016FB94F900301BB10A216448FFF70FFB6A
:1045E0006348FFF70DFE634800F05CFC94F900306F
:1045F00000900BB17F2B07D12B21684614F056F9A0
:1046000001465948FCF7B6F894F900303BB12B212C
:10461000684614F04BF901465448FCF7ABF82E6895
:104620000021304620F03EFB002839D1514B304666
:104630009D68294620F04AFB00286CD14E4F284641
:10464000396820F02FFB4D4E58B94D4B3D6019682D
:10465000284620F093F901464FF07E5020F084F870
:1046600030603168009820F089F902AB43F8040DFE
:1046700018462B2114F01AF901464248FFF7ECFDC9
:1046800094F900300BB17F2B03D129213648FFF775
:10469000B6FA94F900301BB129213448FFF7AFFA7C
:1046A00094F900300BB17F2B03D10A212E48FFF77C
:1046B000A6FA94F900301BB10A212C48FFF79FFAA3
:1046C00003B0F0BD0021284620F0F6FA08B12E48CC
:1046D00041E70021606820F0E5FA08B92B483AE785
:1046E0002B4838E70021284620F0E6FA08B129488F
:1046F0003CE70021206820F0D5FA00287FF438AF8D
:10470000254833E70021204620F0F4FA08B1234879
:104710003AE7234838E70021A4E72248FFF770FD75
:10472000BEE700BFDC340020347E03084D7E030862
:10473000677E0308BC7C0308BF7C0308767E030801
:104740009D7E0308B27E0308B67E0308CC7E030874
:10475000D67E03081834002017230020F4330020ED
:10476000F37E0308FF7E030894100020AC100020A5
:10477000087F030834060020102D0020F4050020D7
:1047800024340020B88003087E7E0308857E030859
:104790008E7E0308A37E0308AA7E0308BC7E03085E
:1047A000C27E0308197F030838B5094C25882DB24D
:1047B000002D0CD0CCBF012100211AF067FB23880B
:1047C000002DCCBF03F1FF3301331BB2238038BD72
:1047D0001C2300200220FFF7E7BF00000A4B1B78D4
:1047E00023FA00F0C3070DD5084A89B213880B4499
:1047F0001380074A13880B441380064B1A88114410
:1048000009B21980704700BFC72C00201A2300206E
:10481000182300201C2300200A4610B5074B04462D
:1048200003EB80035969106820F0A8F820F082FAA1
:1048300001B22046BDE81040FFF7D0BF6834002029
:1048400000EB4000024B014453F82100704700BFC9
:1048500070230020C0EBC000024B014453F821003C
:10486000704700BF942300202DE9F84305464FF020
:104870007E500C461FF078FF21460646204620F069
:104880007DF82E49074620F079F801464FF0804028
:104890001FF06AFF2A498046204620F06FF839460B
:1048A00020F06CF8014640461FF060FF696820F078
:1048B00065F82968804604F1004020F05FF8314631
:1048C0008146304620F05AF80146484620F056F816
:1048D000014640461FF04AFF4FF081418046204686
:1048E00020F04CF84FF07E511FF040FF14498146F4
:1048F000384620F043F8014648461FF035FFA968C6
:104900008146204620F03AF80146484620F036F825
:10491000014640461FF02AFFE9680446384620F069
:104920002DF8314620F02AF8014620461FF01CFFE2
:104930004FF07C5120F022F8BDE8F8830000A04041
:10494000000040402DE9F74F98469A4B17461A78D9
:10495000064612F0200F0D46994600F09780964CBF
:104960009648FFF74DFC94F900300BB17F2B03D133
:1049700020219348FFF743F994F900301BB120211F
:104980009048FFF73CF994F900300BB17F2B04D12C
:104990000A2231468A48FBF753FF94F9003023B1CD
:1049A0000A2231468748FBF74BFF94F900300BB1E0
:1049B0007F2B09D1002F00F0EB80012F14BF2D2198
:1049C0002B217F48FFF71BF994F900304BB1002FE2
:1049D00000F0E080012F14BF2D212B217948FFF733
:1049E0000EF994F900300BB17F2B03D120217448CC
:1049F000FFF705F994F900301BB120217148FFF74A
:104A0000FEF894F900300BB17F2B03D120216C48C4
:104A1000FFF7F5F894F900301BB120216948FFF742
:104A2000EEF894F900300BB17F2B04D10A2229460D
:104A30006348FBF705FF94F9003023B10A222946A9
:104A40006048FBF7FDFE94F900300BB17F2B0BD1D2
:104A5000B8F1000F00F0A080B8F1010F14BF2D21B4
:104A60002B215748FFF7CBF894F900305BB1B8F130
:104A7000000F00F09380B8F1010F14BF2D212B21FE
:104A80005048FFF7BCF85048FFF7BAFB73003344B7
:104A90004E4C5A1954F822100193084620F034F96C
:104AA000019B00287CD0FFB2BA19D2B217445FFA3A
:104AB00088F8FFB208EB050107EB470702EB42005D
:104AC000C9B27A1954F8229088445A1854F822A08E
:104AD0005FFA88F20144134454F8238054F82130DB
:104AE00000EB050C17444946484654F82CB0019396
:104AF00054F8277020F008F908B14FF00009594622
:104B0000584620F001F900B1CB464146404620F01E
:104B1000FBF808B14FF000085146504620F0F4F879
:104B200000B1C2463946384620F0EEF800B1002701
:104B30000199084620F0E8F800B10197730033446A
:104B4000594658461D441FF011FE49461FF00CFE01
:104B50005146064650461FF009FE41461FF004FE2E
:104B6000014630461FF002FE0199064608461FF036
:104B7000FDFD39461FF0F8FD014630461FF0F6FDF9
:104B800013491FF0AFFF44F8250003B0BDE8F08FD4
:104B9000202116E7202121E7202162E720216FE76D
:104BA00099F800309B06F0D50A4803B0BDE8F04FF5
:104BB000FFF726BB16230020172300206B7F030876
:104BC00094100020AC100020797F0308702300208F
:104BD000000040407C7F0308F8B501250021012337
:104BE000C5F10207FFB281F001044E1C1A462146AE
:104BF0003846FFF7A7FE01234FF0FF322146284633
:104C0000FFF7A0FE4FF0FF33012231463846FFF791
:104C100099FE4FF0FF3331461A462846FFF792FEC1
:104C2000022E4FF00101DAD1022D00D1F8BD354638
:104C3000D4E7000010B50548FFF7E2FABDE81040E0
:104C40000322034B1146104600F012BB267F0308D7
:104C50004148000810B50548FFF7D2FABDE81040FA
:104C60000721034B0522084600F002BB3F7F0308E3
:104C70005548000870B50C46054610B1042823D1EC
:104C80000225601EC3B2022B0ED8244E05EB45054B
:104C9000054456F82510023408461FF067FD56F803
:104CA00024101FF061FD70BD2146681CFFF7E2FF74
:104CB000214605460220FFF7DDFF29460446084647
:104CC0001FF054FD2146ECE7461E11B104291DD109
:104CD0000224F3B2022B0DD806EB46010F4D0C4413
:104CE00055F8241008461FF041FD0C2303FB06561F
:104CF0007168D6E7611C2846FFF7BCFF0221064613
:104D00002846FFF7B7FF31460446D8E706EB4606CC
:104D10004C1E024B264453F82600C4E770230020A3
:104D20002DE9F04F464C8FB0464920681FF0DAFE5F
:104D30004449054660681FF0D5FE434B0446586061
:104D40001D60002128461FF0ADFF002874D12946C0
:104D50004FF07E501FF0C6FE0546002120461FF092
:104D6000A1FF00286AD121464FF07E501FF0BAFE05
:104D70000024364B1D6058600025E3B2029304EB1B
:104D8000440900260027F3B2314A039306EB0903D6
:104D900002EB83030493F8B20EB1022C3AD00FB1A8
:104DA000022D37D01FF092FD26491FF09BFE019087
:104DB00003981FF08BFD23491FF094FEA8468346FD
:104DC0004FF0000A0023029A4046D118C9B2059359
:104DD000FFF750FF059B0DF1280C4CF82300013321
:104DE000042BF0D159466046FFF73EFD06AB43F871
:104DF0002A000AF1010A08F10108BAF1040F5FFA6A
:104E000088F8DFD118460199FFF72EFD1C237B435C
:104E1000049AD0500137032FBDD10136032EB1D1F2
:104E20000135EDB2032D09F11509AAD10134032C86
:104E3000A2D10FB0BDE8F08F00258EE7002097E7E4
:104E40005823002000004040602300205023002011
:104E50009423002038B5114C0021256828461FF006
:104E600021FFB8B929464FF07E501FF03BFE0546A2
:104E70006468002120461FF015FF68B921464FF0F5
:104E80007E501FF02FFE064B1D605860BDE8384075
:104E9000FFF746BF0025EBE70020F4E7582300208A
:104EA000482300202DE9F74F674E0546316800681A
:104EB0001FF05AFC7168044668681FF055FC634D8A
:104EC0008146214628681FF0EDFEDFF8AC81604F77
:104ED00028BB604B2C60196820461FF04FFD06462A
:104EE00028F07EF8002104461FF0E6FE002831D1AC
:104EF000594920461FF0FEFE00B1574C214630466E
:104F00001FF032FCC8F8000020461FF013FF40B22B
:104F1000387001300628A8BF0620504B187049464B
:104F200068681FF0BFFE4E4E97F9004096F900B03A
:104F3000DFF848A180B1A34536D1DAF80010D8F8DF
:104F400000001FF01BFD474B19681FF00FFC03B05A
:104F5000BDE8F08F0024D1E73E4BC5F804905968B6
:104F600048461FF00BFD054628F03AF8002181461F
:104F70001FF0A2FE002864D1374948461FF0BAFE50
:104F800008B1DFF8D490494628461FF0EDFBC8F879
:104F9000040048461FF0CEFE40B27870013006286B
:104FA000A8BF06202D4B5870A34597F901302E4D10
:104FB000DFF8CC9003D196F901209A4225D03A88A7
:104FC000DFF898B03280C4EBC404284EE2189BF995
:104FD000017056F822103C44296056F824000193D1
:104FE0001FF0C2FB9BF90020019BC2EBC2021344DD
:104FF00056F823101E4B1744C9F80000196056F8E4
:1050000027001FF0B1FB1B4B1860D8F80460D9F8DB
:10501000001030461FF0B2FC29681FF0A7FB0446C1
:10502000104B1860134B304619681FF0A7FC104B4B
:1050300019681FF09BFB21461FF096FBCAF8000081
:105040007BE74FF000099EE768230020F805002069
:1050500044230020502300200000A04038230020DB
:105060000006002024230020302300209423002069
:10507000342300202C2300203C2300202023002068
:105080002823002013B50B460092011D00F10802F1
:10509000FFF7FAF902B010BD10B5064B00211868F1
:1050A0004FF001041FF0FEFD08B14FF0000404F0C2
:1050B000010010BD5823002038B5054630B11F4B04
:1050C000002118681FF0EEFD002836D11C4C237813
:1050D000AB4232D017F010FA1A48FFF7E3FE2378FC
:1050E000194DC3B12B78980604D5184A18491948A8
:1050F000FFF7C8FF174817F019F9002323702B7822
:10510000990604D5144A12491248FFF7BBFFBDE8BF
:10511000384015F08FBD2B789A0604D50F4A0C49FC
:105120000C48FFF7AFFF01230A48237017F026F958
:105130002B789B06EBD50A4AE5E738BD58230020BB
:1051400018340020E87F030816230020967F030808
:10515000A67F030834060020BA7F0308C97F03082E
:10516000DA7F03082DE9F041244D04460F4601463D
:1051700028681FF097FD00283DD1214B1E78FFF7CE
:105180009BFF002120461FF0B5FD00B900242C60D4
:105190001C4920461FF0A4FD20B11B4920461FF0EA
:1051A00095FD30BB21464FF07E501FF09BFC174B06
:1051B000174A1860174B1A60EEB1174C0120D4F84B
:1051C00000806668A568FFF777FFA7B141462068B1
:1051D0001FF068FD48B1314660681FF063FD20B1E3
:1051E000A16828461FF05EFD28B9BDE8F04115F022
:1051F000EFBC0020DBE7BDE8F08100BFF433002006
:1052000018340020BD3786B5BD37863524340020DC
:10521000F0FF79C4102D00203406002008B50E4B95
:105220001B789B0602D50D48FEF7EAFF0020FFF72A
:1052300043FF00230A4A536013600A4A5360136015
:10524000094B0A4A1A605A609A60DA601A615A6118
:105250009A61DA611A6208BD16230020857F03086F
:105260006823002058230020702300200000C07F06
:105270002DE9F04F05468A461746002685B0029371
:10528000B542764C1CD0F3B2092B8CBF0220032010
:105290003844C0B2FFF7A4F894F900300BB17F2B6B
:1052A00004D10A2231466E48FBF7CAFA94F900305D
:1052B00023B10A2231466B48FBF7C2FA0136DFE719
:1052C00094F900300BB17F2B03D10A216448FEF71B
:1052D00096FC94F900301BB10A216248FEF78FFC5E
:1052E0000025AA455FFA85FB94F9003000F0A580FF
:1052F000092D0DD80BB17F2B03D120215848FEF783
:105300007EFC94F9003043B120215648FEF777FC2B
:1053100094F900300BB17F2B04D10A222946504862
:10532000FBF78EFA94F9003023B10A2229464D4842
:10533000FBF786FA4FF00008B0455FFA88F994F958
:1053400000306AD00BB17F2B03D120214448FEF7F7
:1053500056FC94F900301BB120214248FEF74FFC67
:1053600059464846029B9847014681461FF0CCFCAF
:1053700088BB002148461FF0B3FC78B194F9003097
:105380000BB17F2B03D12B213548FEF738FC94F964
:10539000003043B12B213348FEF731FC94F9003043
:1053A0000BB17F2B08D148461EF050FE00970246F5
:1053B0000B462B48FBF730FB94F9003043B14846CD
:1053C0001EF044FE009702460B462648FBF724FBDE
:1053D00008F10108B0E74FF000095FFA89F3B91C42
:1053E000994294F90020F3DB0AB17F2A08D1002BFF
:1053F0000CBF20213D211A480393FEF700FC039BBC
:1054000094F9002032B1002B0CBF20213D2115481A
:10541000FEF7F5FB09F10109DFE70BB17F2B03D1A3
:105420000A210F48FEF7EBFB94F900301BB10A216B
:105430000C48FEF7E4FB013553E70BB17F2B03D19A
:105440000A210748FEF7DBFB94F900301BB10A2163
:105450000448FEF7D4FB05B0BDE8F08F1723002009
:1054600094100020AC100020104B10B41870C3B280
:105470001F2B0F4A15D80F4991F900408442DCBF19
:1054800001330B700C4B1B68C34003F00103002871
:10549000137008DB431C094A0949002010BC12F0B4
:1054A000A3BB0023F3E710BC12F0DEBD0206002010
:1054B00060240020582400205C240020F47F03088E
:1054C00004800308C3B21F2B10B50DD80122074971
:1054D00002FA00F30C6823430B60054B93F900308C
:1054E000834204BF034B1A7010BD00BF5C24002030
:1054F0000206002060240020C3B21F2B0FD8012316
:10550000074903FA00F20B6823EA02030B60054B1C
:1055100093F90030834202BF0022034B1A70704798
:105520005C240020020600206024002000214FF0AF
:105530007E520C4B10B519700B4B4FF082401A6025
:105540000A4A0B4C5A60002218619A60DA605C616A
:105550009A61D861074B1A60074B1970074B1A60A4
:1055600010BD00BF6C2400207024002000004842C1
:105570000000504164240020902400206824002072
:105580002DE9F74F2C4E80463378834231D02B4D96
:105590002B4CDFF8BCB094E80F0085E80F00294BD6
:1055A000DBF800C0DB6AD94600932546DFF8A4A0EB
:1055B000254FB8F1000F1FD00BF10400CAF800C04E
:1055C00015F0B6FE3C68002120461FF06BFB70B161
:1055D000DBF808501D4928461FF08CFB38B12946DE
:1055E00020461FF0C3F83860684615F0A1FE86F823
:1055F000008003B0BDE8F08F0024386821461FF01A
:1056000051FB18B968463C6015F092FED9F80C7051
:10561000002138461FF046FB30B9E86839461FF0D4
:10562000A3F8E86015F02AFBD9F8103002A8CAF8F0
:10563000004040F8043DD8E790240020D42C0020FE
:105640003406002068340020642400200AD7233C5C
:105650007024002068240020FFF768BF38B51B4B7A
:1056600093F90030012B2DD0194D19B10023194A9F
:105670002B601370184B1A682B68D31A002B21DB90
:10568000144C002894F900301DDB011D994219DBF0
:105690009842CCBF4FF47A704FF4FA7003F00103D4
:1056A0001902C91A03EBC10103EBC10189001044BF
:1056B00001F55C71286089B2322012F0CFFD2378A9
:1056C0000133237038BD4FF47A70E7E703060020FA
:1056D000A8240020A4240020C03C002010B5114BB9
:1056E00001461B781B070AD40F4B1C783CB90F4BA3
:1056F000B3F908200E4BB3F900309A420ADB0022BE
:105700000B200FF025F8BDE81040002201211046C3
:105710001AF08EBEFEF794FD0648FEF771FD204696
:1057200010BD00BF1623002000370020D436002013
:10573000940600206180030838B5094B094C0D46DA
:10574000006819681FF0CEF9E1681FF00FF8E060FB
:10575000284615F0D5FABDE8384016F0CDBE00BF9A
:105760007C060020340600202DE9F04F85B09DF91D
:10577000405081462846884617469A469DF838404C
:105780009DF83CB0FFF7AAFF064648B924B102468F
:10579000294609200EF0DCFF304605B0BDE8F08F49
:1057A000BBF1000F28D024B10022294604200EF0BE
:1057B000CFFFFEF745FD3A48FEF722FD0121504696
:1057C000FFF74CFF0321374B012093F9002019709C
:1057D00035499B460B4608701978019351B1002159
:1057E00050460092FFF73AFF0120FEF7E1FBDDE9AA
:1057F0000023F1E78BF8002024B100222946052080
:105800000EF0A6FF0021D9F800001FF04BFA30B9C6
:10581000264B04A941F8043D4846FFF78DFF0021BF
:10582000D8F800001FF03EFA68B9214D214BD5F899
:105830003890AB631D4B04A941F8043D4046FFF787
:105840007BFFC5F83890002138681FF053FA60B12B
:1058500024B10022062011460EF07AFF164B04A94F
:1058600041F8043D3846FFF767FF002C94D003232E
:1058700000220C4D114695F900802B700A4B072031
:105880001A700EF065FF0D4B93F900301BB9012023
:10589000FEF78EFBF7E7012B85F80080D3D07BE77E
:1058A0000A800308EE260020152300200000C040D7
:1058B000683400200000C84100004040B8240020A7
:1058C0002DE9F743814610460E461446FFF706FFC2
:1058D000054648B926B10246014609200EF038FFB8
:1058E000284603B0BDE8F08326B1002221460320FC
:1058F0000EF02EFF154B02AC0093154B684644F892
:10590000043D2146FFF718FF41F28830FEF7F4FD11
:10591000104E114B114F2146684600930197FFF737
:105920000BFFD6F83880B763D9F8003021460093D2
:105930000B4B68460193FFF7FFFE0020C6F8388046
:10594000FEF7B5F96420FEF7D7FDC9E7000050C1A6
:1059500000007042683400200000A8410000C841E7
:10596000000020412DE9F7433C4D1F462B7880462F
:105970008946164623B10024204603B0BDE8F083D3
:10598000374B1B7818070FD4002110681FF08AF9D5
:1059900050B9344B1C783CB9334BB3F90820334B26
:1059A000B3F900309A423FDB0123314A2B70137860
:1059B00059074AD413F08AF92E4C2F4B0FCB84E8A9
:1059C0000F0016F099FD0021D8F800001FF06AF9C9
:1059D000B0B9244B1B7863B9234B002158681EF0E3
:1059E000C5FE1FF0A7F9214B00B2B3F90030984271
:1059F00006DB224B02A941F8043D4046FFF79CFE1E
:105A0000072015F0BBFC18B94946022012F082FCB1
:105A1000002130681FF046F9E8B9022239463046C5
:105A2000FFF74EFF0124A7E7FEF70AFC1448FEF734
:105A3000E7FB002F9FD02146224609200EF088FE6A
:105A40002146104812F0FCF896E76FF382031370BA
:105A500002232B70AEE701248EE700BFAC240020A8
:105A60001623002000370020D436002094060020A2
:105A70005C3B00209424002034060020000070428B
:105A80006180030872800308002210B504461146A5
:105A9000904214BF042002200EF05AFEFEF7D0FB05
:105AA0000448054B002C08BF1846BDE81040FEF71F
:105AB000A7BB00BF0A8003082C8003082DE9F84F1C
:105AC00089468346FFF7E0FF01214846FFF7C6FD00
:105AD000244A254C1368254F03F52F43C833236010
