:020000040800F2
:1000000000C00020A5030008510E0008550E00088E
:10001000590E00085D0E0008610E00086316000806
:1000200063160008631600086316000863160008CC
:1000300063160008631600086316000875160008AA
:1000400063160008631600086316000863160008AC
:100050006316000863160008890F0008A90F00083E
:10006000C90F0008E90F000809100008F10C00088A
:10007000090D0008210D00083D0D0008590D00086C
:10008000750D0008910D0008FD0A000863160008B0
:10009000ED21000863160008631600082910000807
:1000A000591900087D190008A1190008D91900087C
:1000B0002D1A00089D1A00080D1B00085513000892
:1000C0006D13000861130008791300086316000817
:1000D00063160008591F0008A91F0008F91F00082F
:1000E0006D1000086316000863160008351C000830
:1000F000591C00087D1C0008B51C0008550B0008A1
:1001000063160008631600087D1B000863160008CC
:100110004920000899200008ED1B0008111C000868
:10012000AD0D0008C50D0008DD0D0008F90D000833
:1001300010B5054C237833B9044B13B10448AFF321
:1001400000800123237010BD781000200000000003
:100150002830030808B5034B1BB103490348AFF32C
:10016000008008BD000000007C100020283003083B
:1001700010B512490A2309220968114800F0EAF96A
:1001800010490323022209680F4800F0E3F90F49E0
:100190001B231A2209680E4800F0DCF90D492B23B5
:1001A0002A2209680C4800F0D5F9BDE810400B4937
:1001B00032232C2209680A4800F0CCB984020020BE
:1001C0009410002088020020AC1000208C02002037
:1001D000C41000207C020020DC10002080020020DF
:1001E000F410002010B5044600F00AFD034B204631
:1001F000BDE81040197800F06BBC00BF160000206D
:10020000F8B50446056801F091FA002223685B0105
:1002100003F184431A6080232B600123AB622A61BF
:10022000EA606B61637973B1012B0FD001222368FF
:100230005B0103F18443C3F8802223685B0103F16F
:1002400084431A60F8BD4FF400436B644FF6FF72AD
:1002500000252368DA626E1CF7B23946204601F0A9
:100260007AFAE8B148F6FF72236817F0010F03F13C
:10027000340343F8252014BF6FF0FF026FF47F4270
:1002800023684FEA650503F1180353F8251001EAC6
:10029000020114BF68224FF4D0420A4343F82520DC
:1002A000042E3546D7D1C1E77047000038B5002588
:1002B000264A274C1368022043F01003136000F015
:1002C00001FF002001F0C2F865602368182023F4C4
:1002D0000023236001F0C6F8102001F0C3F800F0FD
:1002E00043F8A560102001F0B1F8102001F0C8F823
:1002F0000028FAD000F039F8164801F0CDF818209F
:1003000001F0A4F8182001F0BBF80028FAD0022070
:1003100001F08CF800214FF0006001F05DF80E480C
:1003200001F0A0F900F038F80C4B188800F050FCF0
:100330000B4800F051FC0B4801F0D2F900F02EF808
:1003400000F02DF8FFF7B0FF38BD00BF00200240DD
:10035000001002400C0000203F1901001400002092
:10036000E5010008010200087047002108B50846B1
:1003700001F0D2F84FF48061012001F0CDF80021A6
:10038000022001F0C9F82D2001F0D6F8BDE80840A0
:100390000021032001F0C0B800F0A8BE704700F0B3
:1003A000E4BE000001498D460149084700C0002015
:1003B000B503000808B5114B1A68114B9A4213D1C6
:1003C000104B114A934213D32BF0CAFE0022114660
:1003D000104602F05BFE0D4B7BB12BF05DFC52F83A
:1003E000041B043343F8041C09498B42F7D3E7E7A5
:1003F0000022043343F8042CE3E7FEE7C895030822
:100400000000002078100020583D002099BC020810
:100410007810002010B50D4B1A680AB90C4A1A6002
:100420001A680C49891A814204DB09494442511A6D
:10043000A14207DA2BF02AFC0C234FF0FF320360B5
:10044000104610BD10441860FAE700BF0C110020E0
:10045000583D0020A0020428002070474FF40053AC
:1004600000204B607047012070474FF0FF3070470D
:100470000020704710B50C46FFF7FAFF20700120EE
:1004800010BD704770B515460C468E18B44201D1A8
:10049000284670BD14F8010BFFF7F3FFF6E7FEE7FF
:1004A000C38882889B1AC2888188914282BF028950
:1004B00001329B1898B2704710B50369044658681A
:1004C000FFF7EEFF88B123695B689A88196892B2DA
:1004D000885C99881A89C0B292B28A420FBF002202
:1004E0009A88013292B29A8010BD4FF0FF30FBE73C
:1004F00008B503695868FFF7D3FF08BD03695B6857
:100500009988DA8892B28A421FBF9A881B6892B291
:10051000985C14BFC0B24FF0FF3070470269916819
:100520008888CB889BB28342FAD1126813685B0635
:10053000FCD5704713B504698DF8071001220DF141
:100540000701204601F02BFC0028F7D0012002B063
:1005500010BD000030B54FF0000C4FF47A75C0E9C3
:1005600001C5034D016105600275437530BD00BFD3
:10057000D84503082DE9F74303690446DB6888463C
:100580008B42914625D3067D134D3601AB19477D2D
:10059000586818B10022597B01F094F9206901F0E4
:1005A000B3FB39016A18127BAB19CDF804901B7BA1
:1005B000695800932069AB5901F06DFC20694246EF
:1005C000002101F08EFC206903B0BDE8F04301F08A
:1005D000C1BB03B0BDE8F083A04203080022FFF7CF
:1005E000C9BF0000044B02791B789A4202BF034B3B
:1005F0001B681860704700BF3011002034110020C4
:10060000002310B50446036072B6054B193119700A
:10061000044B1860044801F063F862B6204610BD30
:100620003011002034110020E50500080022036885
:100630001B685B0103F184431A6070470122036861
:100640001B685B0103F184431A607047036801393A
:100650001B6889B29962704703681A68D36A9BB2B3
:10066000994228BF19465162704738B561B90122D5
:1006700003681B68996203681B68DA6203681B6879
:10068000DC6AA4B2204638BD48224A434FF6FF71C7
:10069000B2FBF1F1013189B202EB5102B2FBF1F28E
:1006A00094B2FFF7D3FF036892B21B68DA62E9E7FE
:1006B000C9B2006801F068B8012203681B685B01D9
:1006C00003F18443C3F880227047000008B501217C
:1006D0001048FFF795FF02210F48FFF791FF032114
:1006E0000E48FFF78DFF04210D48FFF789FF052114
:1006F0000C48FFF785FF06210B48FFF781FF072114
:100700000A48FFF77DFFBDE8084008210848FFF7C9
:1007100077BF00BF10110020141100201811002015
:100720001C1100202011002024110020281100207D
:100730002C110020F8B506460C4615468F18A74226
:1007400006D0336814F8011B1B6830469847F6E75B
:100750002846F8BD70B505460C46084649B12CF050
:10076000E1FD2B68024621462846BDE870409B68A3
:10077000184770BD0368C9B21B68184703685B68F7
:10078000184738B50D210546FFF7F4FF0A21044646
:100790002846FFF7EFFF204438BD38B50546FFF780
:1007A000EDFF04462846FFF7ECFF204438BD2DE955
:1007B00070439046994690B058EA090306469DF862
:1007C000585007D13021FFF7D5FF0125284610B03A
:1007D000BDE870830024404649462A46002320F0A5
:1007E0000FFF8046894601340DEB040303F8012C0A
:1007F00058EA0903EFD10025013C1DF804103046EA
:10080000092994BF3031373149B2FFF7B3FF0544AE
:10081000002CF1D1DAE72DE9F0411D46002A75F1EF
:10082000000307461446069E05DA2D21FFF7A2FFB6
:10083000644265EB4505F6B2069622462B463846DD
:10084000BDE8F041FFF7B3BF07B5CB1700920A46EA
:10085000FFF7E1FF03B05DF804FB38B50546FFF78D
:10086000F3FF04462846FFF78CFF204438BD07B548
:10087000CB1700920A46FFF7CEFF03B05DF804FBEA
:1008800037B5CB1700920A460546FFF7C4FF04466A
:100890002846FFF776FF204403B030BD07B5D2B23B
:1008A000009200230A46FFF782FF03B05DF804FBC5
:1008B00037B5D2B2009200230A460546FFF777FF0C
:1008C00004462846FFF75DFF204403B030BD00001A
:1008D0002DE9F34717461E4682460022002338467C
:1008E000314620F06BFA9DF828504FF00104F8B122
:1008F00043A3D3E900233846314620F055FA00B926
:100900000446E4B20022002338463146C4B120F048
:1009100037FA18B12D215046FFF72CFF04463C4909
:100920005046FFF72BFF0444204602B0BDE8F08795
:1009300035A3D3E900233846314620F02BFADEE711
:1009400020F01EFA30B12D215046FFF713FF044668
:1009500006F100464FF0000800202E495FFA88F3A8
:100960009D4206D900222C4B20F0C2F808F1010864
:10097000F4E73A4633461FF0DBFD06460F4620F00B
:1009800057FE0A230246009380460B46504689468E
:10099000FFF741FF0444002DC6D0404649461FF0F2
:1009A0004FFF02460B46304639461FF0BFFD064654
:1009B0000F4650461949FFF7E1FE0444013DEDB2F0
:1009C000FF2DB1D0144B0022304639461FF066FF90
:1009D0000F46064620F0FCF90A22014680465046A2
:1009E000FFF732FF044440461FF0EEFE02460B467E
:1009F000304639461FF09AFD06460F46DEE700BF37
:100A0000800350726C92DF43800350726C92DFC39C
:100A1000F44503080000E03F000024408D6803080F
:100A20009DF800100091FFF753BF37B59DF81810DF
:100A300005460091FFF74CFF04462846FFF7A1FE4C
:100A4000204403B030BD000030B504460D4687B0E9
:100A5000064901A82CF052FA22462B4601A90A9811
:100A60002CF04CFA0A9807B030BD00BF03460308CB
:100A7000322810B414D899B1012A0FD0022A0CBF21
:100A800002230023074A00011418125810790A465D
:100A90000B38C1B2207B10BC00F060BA1346F1E7FE
:100AA00010BC7047A0420308704710B50446007997
:100AB00000F000FD2079BDE8104000F013BD026891
:100AC00041F48011936823F46023194391607047C7
:100AD000002330B51C461D4603EB4302072B01FAE9
:100AE00002F203F10103D8BF15430A2B44EA0204C2
:100AF000F2D10368DD6003681C6130BD70B5144C31
:100B000023681B681D68A90707D51A6822F002022E
:100B10001A6023689B6803B198476A0709D5236860
:100B20001A68136823F00403136023681B6903B178
:100B30009847EB070BD523681A68136823F0010365
:100B400013602368DB6813B1BDE87040184770BDBF
:100B50001C00002070B5144C23681B681D68A90791
:100B600007D51A6822F002021A6023689B6803B155
:100B700098476A0709D523681A68136823F00403A5
:100B8000136023681B6903B19847EB070BD52368F3
:100B90001A68136823F0010313602368DB6813B13C
:100BA000BDE87040184770BD240000200122036892
:100BB0005B0103F1844303F58673191F1A601868FB
:100BC0000028FCD143F8042C0B68002BFCD17047A3
:100BD0000146042000F0A0BC10B50446054B18687F
:100BE000A047054B1868A047044B18682346BDE88A
:100BF000104018471C000020200000202400002086
:100C000010B50446FFF751FF20464FF46021FFF76F
:100C100056FF0122236820465B0103F18443C3F899
:100C2000502123685B0103F18443C3F80021BDE830
:100C30001040FFF7BBBF007900F03CBC1423013922
:100C4000594300680830435823F4405343EA0232C2
:100C500042507047036814200833013900FB01310A
:100C60004A60704700EBC10340F8312093F904302B
:100C7000002B08DB0122591103F01F0302FA03F3D2
:100C8000014A42F82130704700E100E01422036875
:100C9000013902FB01310123490101F18441C1F80D
:100CA0000031704714220368013902FB013100232F
:100CB000490101F18441C1F8003170472DE9F0414B
:100CC00014251C4690464B1E5D430668FFF7EAFF5D
:100CD0009DF81C30240244EA8324089B08361C43F8
:100CE000069B77197451FB60C7F80880BDE8F08156
:100CF00010B5044B1C68A3681BB1984701222368F8
:100D00005A6010BD6000002010B5044B1C682369B8
:100D10001BB19847102223685A6010BD6000002064
:100D200010B5054B1C68A36923B198474FF4807236
:100D300023685A6010BD00BF6000002010B5054B4D
:100D40001C68236A23B198474FF4805223685A6085
:100D500010BD00BF6000002010B5054B1C68A36AE1
:100D600023B198474FF4803223685A6010BD00BF0A
:100D70006000002010B5054B1C68236B23B1984719
:100D80004FF4801223685A6010BD00BF600000203D
:100D900010B5054B1C68A36B23B198474FF08072C8
:100DA00023685A6010BD00BF6000002010B5044BDE
:100DB0001C68A3681BB19847012223685A6010BDC4
:100DC0006400002010B5044B1C6823691BB19847D0
:100DD000102223685A6010BD6400002010B5054B36
:100DE0001C68A36923B198474FF4807223685A6046
:100DF00010BD00BF6400002038B5104C636CD807EC
:100E00000BD52368D90408D50D4B1D682B6A23B177
:100E100098474FF480522B685A60A36DDA070BD5C0
:100E20002368DB0308D5064B1C68A36A23B19847E7
:100E30004FF4803223685A6038BD00BF000402407E
:100E4000640000200000000000000000000000001E
:100E5000012007E0022005E0032003E0042001E078
:100E60000520FFE70D4A0121116072B60C4A0021EE
:100E70001160074902B4084902B486B005498E469C
:100E8000704700BFAFF30080AFF30080AFF3008086
:100E900000000061F9FFFFFF5930000814ED00E089
:100EA00010E000E070B505469DF810602948012E5D
:100EB00040F8352000EBC500436005F502241DD045
:100EC00015D3022E20D0284600F0F2F80123A4000A
:100ED00004F1844423600F2D22D8DFE805F01E22A0
:100EE00025292D3131313131353535353535012231
:100EF000A30003F18443C3F80021E4E7A30003F156
:100F00008443C3F88061DEE70122A30003F1844338
:100F1000C3F80021C3F88021D5E740220E4B1A60A8
:100F200070BD0D4B8022FAE70B4B4FF48072F6E751
:100F3000094B4FF40072F2E7074B4FF48062EEE783
:100F4000054B4FF40002EAE74FF48072024B5A60FF
:100F5000E6E700BF3811002000E100E007B500938C
:100F60000023FFF79FFF03B05DF804FB10B50F24CB
:100F700001F00301890003688C4023EA040302FAAC
:100F800001F11943016010BD08B5054A136833B17A
:100F9000506898470122034B5A6100BF00BF08BD4B
:100FA000381100200004014008B5054A936833B1A8
:100FB000D06898470222034B5A6100BF00BF08BDAA
:100FC000381100200004014008B5054A136933B107
:100FD000506998470422034B5A6100BF00BF08BD07
:100FE000381100200004014008B5054A936933B167
:100FF000D06998470822034B5A6100BF00BF08BD63
:10100000381100200004014008B5054A136A33B1C5
:10101000506A98471022034B5A6100BF00BF08BDB9
:1010200038110020000401402DE9F041002705247B
:101030000C4DD5F814800126A64018EA060F08D0FA
:10104000094BE10053F834201AB10B44586890471B
:10105000374301340A2CEED16F6100BF00BFBDE8F9
:10106000F08100BF00040140381100202DE9F0415B
:1010700000270A240C4DD5F814800126A64018EA52
:10108000060F08D0094BE10053F834201AB10B4485
:101090005868904737430134102CEED16F6100BF80
:1010A00000BFBDE8F08100BF0004014038110020FE
:1010B00000F0FC030A46014601481844FFF756BFFA
:1010C00008000140034A136823F007031843106027
:1010D000704700BF0020024010B50446007900F0C0
:1010E000E9F92079BDE8104000F0FCB908B50748DF
:1010F000FFF7F2FF0648FFF7EFFF0648FFF7ECFFA8
:10110000BDE808400448FFF7E7BF00BFD800002053
:10111000E0000020E8000020F000002070B50F255E
:101120000368CE0801F00700840053F82600092A5E
:1011300005FA04F520EA050514BF10460820A04072
:101140002843082A43F8260007D10120DA6800FA6C
:1011500001F122EA0101D96070BD092AFCD1012206
:10116000D86802FA01F10143F5E708B5032000F061
:10117000A1F9BDE80840032000F0B4B903681A687B
:1011800012F4985FFBD11A6842F480721A607047BB
:1011900003681A6812F4985FFBD11A6842F400726F
:1011A0001A600268136813F4985FFBD1704700005F
:1011B00070B502684568516992695A4AAE781268FA
:1011C000CB07044606F00106C26014D50023EB806D
:1011D00000F0D8F82268536843F48063536026B166
:1011E0002268136843F48063136000212B8822680F
:1011F00046EA4303136111F00A0F10D0AB88002EAA
:1012000045D0012B0AD122682046136823F480635D
:101210001360A38B012B37D9FFF7B0FF002101F03A
:101220008402802A03D1A38B002B49D1002101F035
:101230008402842A0DD1A18B2046002954D0FFF7C7
:101240009DFF22685369D907FCD5002163680C33E0
:1012500063604B0661D52368AA681969EB88581C3E
:10126000E880D154AB88EA88591E8A424BD1226863
:101270002046136823F480631360A38B022B3ED9AE
:10128000BDE87040FFF77ABFFFF782FFC6E7012B8A
:1012900008D9EB88A9685A1CEA802268CB5C1361E4
:1012A0003146BCE7002BFBD12046FFF771FF2268D7
:1012B000536823F400735360022384F82330ADE7AE
:1012C000EB88A9685A1CEA802268CB5C1361EA8823
:1012D000AB889A42AAD12268536823F48063536092
:1012E000A38B013BA383A1E7FFF752FF226853685A
:1012F00023F400735360022384F82330A9E7BDE888
:101300007040FFF745BF9A4207D1A38B013B9BB2C8
:10131000A3831BB9022384F8233070BD63680C33A8
:101320006360FAE7F43C002008B50268536903F4EF
:10133000706383600023536102689361FFF728FFA5
:101340000268536823F4E0635360FF2380F823307E
:1013500008BD00000148FFF72BBF00BFF8000020C8
:101360000148FFF725BF00BF1C0100200148FFF71F
:10137000DBBF00BFF80000200148FFF7D5BF00BF6A
:101380001C01002010B50446002190F9210000F056
:101390000FF894F922000021BDE8104000F008B8D1
:1013A0004AF6AA22014B1A60704700BF0030004085
:1013B0000028A8BF00F160404FEA0111B8BF054BFB
:1013C000C9B2B5BF00F00F0000F56140195480F8B4
:1013D0000013704714ED00E010B5002421F06041C7
:1013E00021F07F01064A0143916060B20F21013470
:1013F000FFF7DEFF3C2CF8D1F02382F8233010BD3C
:1014000000ED00E00449054BCA6802F4E0621343B2
:10141000CB60BFF34F8FFEE700ED00E00400FA055C
:10142000014B13F81000704728460308064B5A6812
:1014300022F0030202435A6080005A6802F00C0254
:101440008242FAD1704700BF00100240030AC2B2C4
:10145000012003F1804303F50433196890400843E9
:10146000186070470121030A03F1804303F5043338
:101470001A68C0B201FA00F022EA00001860704752
:10148000030A03F1804303F504331A680223C0B250
:1014900003FA00F010407047054A0168536823F4CE
:1014A00074130B43416809680B435360704700BFD6
:1014B0000010024010B50446FFF7B2FF074B53F887
:1014C0002020074800EB4400437803EBC2030122CD
:1014D0009B0003F184431A6010BD00BF400100204F
:1014E0002846030810B50446FFF79AFF084B53F847
:1014F0002020084800EB4400437803EBC20301229C
:101500009B0003F184431A6000221A6010BD00BFE3
:10151000580100202846030810B5054A054C5368B9
:1015200054F8200023EA00030B43536010BD00BFB2
:10153000001002401446030810B50446FFF770FF80
:10154000074B53F82020074800EB4400437803EB97
:10155000C20300229B0003F184431A6010BD00BF48
:101560004C0100202846030801EBC000800000F178
:1015700084400260704710B504460079FFF79AFF77
:101580002079BDE81040FFF7ADBF012206210068B9
:10159000FFF7EABF002206210068FFF7E5BF10B59C
:1015A0000C46016803464A6822F0E0024A6002687D
:1015B0001268624012F4205F01D0FFF7EBFF1A6857
:1015C00018461460BDE81040FFF7DFBF134343F037
:1015D00004031943FFF7E3BF0122006811460430FA
:1015E000FFF7C2BF0068002201210430FFF7BCBF33
:1015F0000068012200210430FFF7B6BF0022036813
:101600005B0103F18443C3F880207047F8B51046AE
:10161000069C9DF81C709DF820609DF8245081B1B7
:101620000B2239462046FFF779FD04223146204639
:10163000FFF774FD0B2229462046BDE8F840FFF76E
:101640006DBD19460422FFF769FD04223946204684
:10165000FFF764FD0B2231462046FFF75FFD0422B1
:10166000E9E7FEE70722024B58601A60704700BFA7
:1016700010E000E0044A136801331360034B1B6859
:1016800003B11847704700BFF43C0020B811002098
:1016900011F0010F70B501F1FF340DBF08250025D1
:1016A0006FF0FF016FF47F410068C4F3400418300D
:1016B00050F8246013433140AB400B4340F82430D2
:1016C00070BD02684B1E02F1404220329B0003EBCA
:1016D000C20301229B0003F184431A60704700009B
:1016E00010B504460948A0470948A0470948A04743
:1016F0000948A0470948A0470948A0470948A0470A
:101700002346BDE810400848184700BF8401002068
:10171000AC010020D0010020F401002018020020BC
:101720003C020020480200205402002010B504466C
:101730000079FFF7BFFE2079BDE81040FFF7D2BE69
:101740000023026813600268D3604279012A9CBFBB
:1017500002681362704703791E2B10D9212B0ED01B
:10176000202B0ED9222B01D0252B04D102298CBF8E
:101770000020012070474B1E5842584170470120FD
:1017800070470020704700008B1C40F82320012385
:1017900042798B4010B5DB43EAB1012A41F65F6222
:1017A00018BF01221340012204682361036803F17A
:1017B00040430C3301EBC3039B0003F184431A60E5
:1017C000427903793ABB072915D8DFE801F00715FC
:1017D0001515151A1A1F41F6FF62E3E71A2B0CBF05
:1017E00019232C230122590903F01F0302FA03F3E2
:1017F000254A42F8213010BD1A2B0CBF1B232E2383
:10180000F0E71A2B0CBF1A232D23EBE71A2B0CBF82
:1018100018232B23E6E71B3B0C2BECD801A252F834
:1018200023F000BF85180008591800085D1800084B
:10183000611800086518000869180008F717000803
:101840006D1800087118000875180008791800084C
:101850007D180008811800081D23C3E71E23C1E777
:101860003223BFE73623BDE73723BBE71823B9E7A9
:101870001923B7E71A23B5E72B23B3E72C23B1E7E6
:101880002D23AFE71C23ADE700E100E00022036851
:1018900003F140430C3301EBC3039B0003F184438A
:1018A00002311A6040F82120704738B504460D46D1
:1018B00013460022FFF7ECFE29462046BDE83840DB
:1018C000FFF7FFBE38B543790546022B0C4615D00D
:1018D000042A13D8DFE802F003132A2D3A00FFF799
:1018E000D5FF0268631E02F1404220329B0003EBE9
:1018F000C20300229B0003F184431A6038BD00221A
:10190000036803F140430C3301EBC3039B0003F175
:1019100084431A600823602221462846FFF7B8FE58
:1019200021462846BDE83840FFF7CBBE00231022F1
:10193000F2E74FF2F11203689A61032203689A609A
:10194000036801225B0103F18443D6E70122BDE86D
:101950003840FFF7AABF000010B5074A1468E368D3
:1019600021690B401B0606D5536A23B198472369AA
:1019700023F08003236110BD8401002010B5074AC5
:101980001468E36821690B40DB0706D5936823B12F
:101990009847236923F00103236110BD84010020CF
:1019A000F8B50C4D2F68FE683B691E4016F04004E8
:1019B00003D02C6A0CB1A0474024B30604D5EB69D0
:1019C00013B1984744F020043B6923EA04043C61C6
:1019D000F8BD00BF84010020F8B5134D2F68FE68E4
:1019E0003B691E4016F0100403D0AC690CB1A0474F
:1019F0001024310704D56B6913B1984744F00804EB
:101A0000720704D52B6913B1984744F00404B30757
:101A100004D5EB6813B1984744F002043B6923EA0C
:101A200004043C61F8BD00BF84010020F8B51A4DE4
:101A30002F68FE683B691E4016F0400403D02C6AF4
:101A40000CB1A0474024F30604D5AB6913B1984705
:101A500044F01004300704D56B6913B1984744F083
:101A60000804710704D52B6913B1984744F00404A6
:101A7000B20704D5EB6813B1984744F00204F307AA
:101A800004D5AB6813B1984744F001043B6923EADD
:101A900004043C61F8BD00BFAC010020F8B51A4D4C
:101AA0002F68FE683B691E4016F0400403D02C6A84
:101AB0000CB1A0474024F30604D5AB6913B1984795
:101AC00044F01004300704D56B6913B1984744F013
:101AD0000804710704D52B6913B1984744F0040436
:101AE000B20704D5EB6813B1984744F00204F3073A
:101AF00004D5AB6813B1984744F001043B6923EA6D
:101B000004043C61F8BD00BFD0010020F8B51A4DB7
:101B10002F68FE683B691E4016F0400403D02C6A13
:101B20000CB1A0474024F30604D5AB6913B1984724
:101B300044F01004300704D56B6913B1984744F0A2
:101B40000804710704D52B6913B1984744F00404C5
:101B5000B20704D5EB6813B1984744F00204F307C9
:101B600004D5AB6813B1984744F001043B6923EAFC
:101B700004043C61F8BD00BFF4010020F8B51A4D23
:101B80002F68FE683B691E4016F0400403D02C6AA3
:101B90000CB1A0474024F30604D5AB6913B19847B4
:101BA00044F01004300704D56B6913B1984744F032
:101BB0000804710704D52B6913B1984744F0040455
:101BC000B20704D5EB6813B1984744F00204F30759
:101BD00004D5AB6813B1984744F001043B6923EA8C
:101BE00004043C61F8BD00BF1802002010B5074A8C
:101BF0001468E36821690B40DB0706D5936823B1BD
:101C00009847236923F00103236110BD3C020020A3
:101C100010B5074A1468E36821690B40DB0706D555
:101C2000936823B19847236923F00103236110BD12
:101C30004802002010B5074A1468E36821690B4088
:101C40001B0606D5536A23B19847236923F0800306
:101C5000236110BD5402002010B5074A1468E368E0
:101C600021690B40DB0706D5936823B198472369A8
:101C700023F00103236110BD54020020F8B50C4D80
:101C80002F68FE683B691E4016F0400403D02C6AA2
:101C90000CB1A0474024B30604D5EB6913B19847B3
:101CA00044F020043B6923EA04043C61F8BD00BF12
:101CB00054020020F8B5134D2F68FE683B691E40A2
:101CC00016F0100403D0AC690CB1A0471024310702
:101CD00004D56B6913B1984744F00804720704D522
:101CE0002B6913B1984744F00404B30704D5EB689B
:101CF00013B1984744F002043B6923EA04043C61B1
:101D0000F8BD00BF5402002000223F2110B5044658
:101D1000436810309A801860DA801981A3689A802D
:101D2000DA8004F1500219811A6094F89000FFF7EC
:101D3000C1FB94F99130002B08DB0122591103F00B
:101D40001F0302FA03F3024A42F8213010BD00BF1C
:101D500000E100E00368DA6842F02C02DA60DA6839
:101D600042F40052DA60704710B5036881688C88CD
:101D7000CA8892B2A242FAD1DA68910402D51A68EE
:101D80005206F9D5DA6822F40052DA604268938884
:101D90009BB2D380826893889BB2D38010BDF0B58C
:101DA0000B4606460468B568581AAF88ED88ADB290
:101DB000BD4204D125682D0601D5824210D8E368C2
:101DC00023F08003E3609042B3680DD39A88DB88E8
:101DD0009BB293421EBFE36843F08003E360F0BD13
:101DE00013F8010B6060DEE7DD889F880135BD4296
:101DF000ECD0DF881D89ADB2BD4203D19D88ADB264
:101E0000002DE3D0DD8811F800C01F68ADB207F8DF
:101E100005C0DF881D890130ADB2BD420FBF00256E
:101E2000DD880135ADB2DD80CDE7034682880168EB
:101E300092B2885C99881A89C0B292B28A420FBF66
:101E400000229A88013292B29A80704738B5C388CE
:101E500082880133934204460D4607D0C288038925
:101E60009BB2934214D183889BB28BB92046FFF773
:101E7000DCFFE38822689BB2D554E28823899BB2B9
:101E800093420FBF0023E38801339BB2E38038BD48
:101E90004FF0FF30EDE770B51E4605460846114687
:101EA0000422059CFFF73AF90B229DF810103046EA
:101EB000FFF734F929686302CA6803F4F05322F487
:101EC000F0521204120C1343CB602A6824021369E7
:101ED00004F4405423F440531B041B0C1C431461B2
:101EE00070BD38B50546144611B900F0FDF801463D
:101EF00019235943A200B1FBF2F26421B2FBF1F0C5
:101F000001FB10231B013233B3FBF1F303F00F038A
:101F10002C6843EA00139BB2A36038BD10B5044699
:101F2000084B1868A047084B1868A047074B18686B
:101F3000A047074B1868A047064B18682346BDE822
:101F40001040184784020020880200208C020020E4
:101F50007C0200208002002010B5104CE368980637
:101F600007D52368990604D561680D48C9B2FFF703
:101F70006DFFE3681A060BD523681B0608D50948D0
:101F80008288C3889BB2934203D0FFF74EFF606004
:101F900010BDE36823F08003E360F9E700380140F7
:101FA000EC110020F811002010B5104CE3689806E1
:101FB00007D52368990604D561680D48C9B2FFF7B3
:101FC00045FFE3681A060BD523681B0608D50948A8
:101FD0008288C3889BB2934203D0FFF726FF6060DC
:101FE00010BDE36823F08003E360F9E7004400409C
:101FF000041200201012002010B5104CE36898065F
:1020000007D52368990604D561680D48C9B2FFF762
:102010001DFFE3681A060BD523681B0608D509487F
:102020008288C3889BB2934203D0FFF7FEFE6060B4
:1020300010BDE36823F08003E360F9E70048004047
:102040001C1200202812002010B5104CE3689806DE
:1020500007D52368990604D561680D48C9B2FFF712
:10206000F5FEE3681A060BD523681B0608D5094858
:102070008288C3889BB2934203D0FFF7D6FE60608C
:1020800010BDE36823F08003E360F9E7004C0040F3
:10209000BC110020C811002010B5104CE368980650
:1020A00007D52368990604D561680D48C9B2FFF7C2
:1020B000CDFEE3681A060BD523681B0608D5094830
:1020C0008288C3889BB2934203D0FFF7AEFE606064
:1020D00010BDE36823F08003E360F9E7005000409F
:1020E000D4110020E011002008B590F89000FFF70F
:1020F00097F920B10128034818BF002008BD024805
:10210000FCE700BF00A24A040051250230B548F2A6
:102110008005094C226822F4804222F070022A4392
:1021200042402260236823F4E04323F040032B4322
:102130004B40236030BD00BF005C0040284B0728A7
:1021400018BF18701A78052A48D8DFE802F0031380
:102150001E232B364FF6FB71224A106C014011648E
:102160004FF43F41116406221A701F4B1B685A7BC3
:102170001A7370474FF6FB711A4A106C01401164D4
:102180004FF43F411164042202E002225A700322FC
:102190001A7006E05A78013AD2B25A705A78002A78
:1021A000F1D070470F490A6C92B242F010020A64F3
:1021B00005221A700A225A7070475A78013AD2B230
:1021C0005A705A78002AECD14FF6EF720549086C24
:1021D00002400A64044A1268517B11730622D7E751
:1021E000F83C0020005C0040740500202DE9F0411F
:1021F0005F4D604A2B68546C1B68A4B223405E0597
:1022000006D56FF4806353645B4B1B685B6898472B
:102210002A6813682340980442BF6FF40051554B5D
:10222000596413682340D90406D56FF4C052514B4A
:1022300000205A64FFF782FF2B681A6822401205BB
:102240000FD54C490A6C92B242F0080042F00C02E1
:1022500008640A641A7B5A7303221A736FF4C0521B
:102260004A641A682240970542BF6FF40071414AE0
:1022700051641B682340DE0506D56FF480723D4B28
:1022800007205A64FFF75AFF2B681B681C40240480
:1022900003D5384C676C3B0401D4BDE8F0816FF482
:1022A000004317F00F06636438D148F68003D4F872
:1022B000008018EA030FECD01FFA88F32F4D304E40
:1022C00003F440524FF4005003F0300320213380D8
:1022D0002A80FFF71BFFF80623680ED423F4E1439E
:1022E00023F070031B041B0C236000F09BFD31885E
:1022F0002888BDE8F041FFF709BF18F0800FEDD145
:1023000023F070031B051B0D18F4006F236002D02F
:1023100000F0A6FBEBE700F003FDE8E7B40004F1F2
:10232000804404F5B844276839040DD5236823F0A8
:1023300070031B051B0D23602A6806F18043926819
:10234000013B52F8233098473A06A2D5236806F19C
:10235000804623F4E14323F070031B041B0C23602D
:102360002B68013E5B6853F82630984791E700BF21
:1023700074050020005C0040003D0020FA3C002075
:10238000FC3C0020800000F1804000F5B84003686C
:1023900023F4804323F0700343F4004343F08003AD
:1023A000594001607047000018B90722024B1B68B2
:1023B0001A820248704700BF083D0020E405002053
:1023C0000022012110B5104B1B689A720F4B196443
:1023D0000F4908680260086804681C644FF4E05400
:1023E0005A640460086804681C644FF43F445A64EB
:1023F00004600868006818644FF48010054B18608A
:102400000B681A7310BD00BF083D0020005C00403F
:102410007405002000E100E013B5104B1A68137832
:1024200003F07F03212B16D1022808D0222801D0E7
:10243000022405E093780A4A03F003031370002492
:10244000084B1B6823B102A901F8010D022098472F
:10245000204602B010BD0224FAE700BF083D00206C
:10246000381200203412002021B901288CBF02202C
:102470000020704702207047054B1B689B78032B98
:1024800004D8044901EBC30100F0BCBA0020704736
:10249000083D0020CC050020014900F0B3BA00BF80
:1024A00088050020014900F0ADBA00BF900500206A
:1024B00037B5114C2268127802F07F02212A02D02F
:1024C000022003B030BDA0F12003012B0B4B0C4DBB
:1024D0001B6888BF002523B102A901F8010D022065
:1024E0009847002DECD0236800249D615C82204633
:1024F000A8472046E5E700BF083D00203412002031
:10250000A92300082DE9F04700254FF0C00948F63F
:102510008F1648F280074FF0400A434B434C1B682C
:10252000DFF838819D7283F8099025652368284675
:10253000334043F400732360236803EA08033B43FA
:1025400083F010032360226D394B520043F802A040
:102550008022236D5B0003F1804303F5C0431A60C2
:10256000236823F4E24323F070031B041B0C236055
:10257000304B1B6893F82C1000F072F84FF4405168
:102580002846FFF7FFFEA3682946334043F4C063A3
:10259000A360226D284B520013444FF480721A60DE
:1025A000A268022002EA08023A4382F02002A260F6
:1025B000FFF7E8FEE36851463340E360226D1F4BAE
:1025C000520013444FF4887203201A6000F048F858
:1025D0004FF440510320FFF7D5FE636829461E40A3
:1025E0006660226D164B520043F80290636801202A
:1025F00003EA08033B4383F020036360FFF7C2FE56
:102600000122104B28461B681A7300F0EBFBFF22D7
:102610000D4B1D600D4B1D600D4B1D600D4B1D6066
:102620000D4B1A70BDE8F087083D0020005C0040AB
:1026300008600040003D00202060004038600040FD
:1026400010600040740500203C1200204012002061
:10265000481200204C12002044120020BF8FFFFFC0
:102660000D4B0E4A1B6D3E2903EBC0004FEA4000A4
:1026700002440AD94B09C80604BF03F1FF339BB2D9
:102680009B0243F40043136070474B08C90748BFDF
:1026900001339B02F7E700BF005C00400C60004084
:1026A00010B5064C18B9012223681A8210BD044BDC
:1026B0001B681B68984720680A30F7E7083D002030
:1026C000043D002010B5064C18B9012223681A8277
:1026D00010BD044B1B689B68984720680C30F7E7D7
:1026E000083D0020043D002010B51E4B1C6800234F
:1026F00010B90223238210BD1B48038021780246B3
:1027000011F07F0112D1617A8C0644BF022303705D
:10271000037848064CBF23F0010343F00103137014
:10272000124B1B681B6998470F48E4E70129E2D068
:10273000022915D1217901F00F039B0003F1804399
:1027400003F5B84309061B6805D503F03003102BC9
:10275000E6D10123E3E703F44053B3F5805FF7E7E5
:102760001846C8E7083D0020FE3C0020043D00203C
:102770002DE9F843234FDFF8A0803D682C8AD4B9B7
:102780002E7A042E17D120490B78012B0ED11F4B26
:102790001A681F4B92B213445B001C6030230C700C
:1027A000A8F800303B681E72BDE8F88310230726A6
:1027B000A8F80030F6E7AB8A9C4294BF04260226B4
:1027C0009C4228BF1C46AB692046984781460020A2
:1027D00000F0B4FB22460146484600F052FB214679
:1027E000002000F0C7FB2B8A4FF440521B1B2B82AA
:1027F0006B8A1C443023A8F80030064B6C821A8088
:10280000D0E700BF083D002050120020505C00407F
:1028100002300020FA3C0020FC3C002010B50A4B9E
:102820000A491B6849789A7891420AD3D97841B904
:102830009C8834B99A72064B1B685B68984720469F
:1028400010BD0220FCE700BF083D0020C8050020A5
:10285000043D002038B50F4A0F4D12682B6892696D
:102860009978187990472B6804469A7A7AB170B9AA
:102870005A7962B9DB7853B9084B1B68DB68984713
:102880002B681A79DA729A781A73204638BD0224B6
:10289000FBE700BF003D0020083D0020043D002074
:1028A00038B52B4B1B68187810F07F0004D15A7A8A
:1028B00022F020025A7238BD022847D15A88002AD5
:1028C000F9D15A79002AF6D11979224D21F08000E8
:1028D000840004F1804404F5B844226849B22D789C
:1028E0000029B4BF02F0300202F4405285422DD9D3
:1028F00062B39B7A53B30029236811DA03F03003E3
:10290000102B07D1C4B2204600F004FB3021204632
:1029100000F0D8FA104B1B685B6998470020CAE7A3
:1029200003F44053B3F5805FF4D10C4D58B90C4B10
:1029300093F82C1000F02CFB23682B409BB283F4FF
:1029400040532360E6E700F0D2FAF5E70220B2E751
:10295000083D0020C8050020043D00208FBFFFFF78
:102960009805002038B51B4B1B4D18682D78017950
:1029700021F08004A30003F1804303F5B8431A68F3
:1029800049B20029B4BF02F0300202F44052A5421D
:102990001DD94488DCB9D2B1827AC2B11A68002943
:1029A000B5BF22F4E04222F4804222F0400222F03D
:1029B0007002B5BF92B292B282F0100282F48052DD
:1029C0001A60064B1B689B699847002038BD02209F
:1029D000FCE700BF083D0020C8050020043D0020A2
:1029E00008B5064B1A68537A43F020035372044B20
:1029F0001B68DB699847002008BD00BF083D002028
:102A0000043D002010B5054B1C68628A18B98B88FC
:102A10009B1A238210BD08681044FBE7083D002084
:102A200008B50B4B002093F82C1000F0B1FA094BBD
:102A30001B68187A082806D14FF48052064B1A807A
:102A40001022064B1A80A0F109035842584108BDD4
:102A500098050020083D0020FA3C0020FC3C0020A6
:102A600073B5964C964E216832680B7A092B16D0B6
:102A7000944B92B213445B001B885B0003F18043CC
:102A800003F5C0431A780A70597822685170998802
:102A9000226851801989226891809B89D380012204
:102AA00023681A72DA885D78002A64D11A7812F0E5
:102AB0007F024DD1092D03D1FFF7B0FE40BB16E0D8
:102AC000052D20D193F90220002A07DA0823226875
:102AD000137202B0BDE87040FFF7A2BFDA78002A97
:102AE000F4D19A88002AF1D19B7A002BEED132687A
:102AF000754B92B2134400225B001A603022734B74
:102B00001A800623E3E7032D14D19A78012A08D00E
:102B10006F4B28461B685B699847032828D1092317
:102B2000D5E79A88002AF3D15B7A9A06F0D5FFF7A9
:102B300057FFC3E7012DEBD19A78012AE8D19A8893
:102B4000002AE5D15B7A9B06E2D5FFF7A9FEB5E73F
:102B5000012A04D10B2DDBD1FFF77CFEAEE7022A60
:102B6000D6D1012DF1D0032DD2D1FFF7FBFEA5E781
:102B70000028ABD1BBE7062D12D11A7855065AD1E1
:102B8000DB78534A012B126802D1D369DBB952E0DA
:102B9000022B01D1136AF9E7032B4CD1536AF5E7F5
:102BA000002D54D15988002945D15A6822F0FF02DE
:102BB000B2F5003F3FD11A7812F07F0216D19B8800
:102BC000002B38D1434B002522682846558293615B
:102BD000984728464FF6FF7123681A8A8A4233D0F5
:102BE000022801D0002A55D108222EE0012A0AD15C
:102BF000374A1879126892699047E0B923689B7A3E
:102C0000002BDFD117E0022A15D11A7902F00F014B
:102C10008B00100603F180432F4803F5B8431B686F
:102C200000784CBF03F0300303F44053884202D9CC
:102C300012F0700FE4D0264B22681B6850781B6995
:102C400098470328C6D1236809221A7241E7082D44
:102C500004D11B785B06EED1204BB4E70A2DEAD1F4
:102C60001A7802F07F02012AE5D19A7A002AE2D08E
:102C700059880029DFD15A6822F0FF02B2F5803F5F
:102C8000D9D1134A18791268926990470028D2D195
:102C9000134B98E793F90010002936DAD9880C4CC9
:102CA00001910198246882421CD9019A1A8294F8F1
:102CB0002C209A82FFF75CFD0BE700BF083D002047
:102CC000505C00400430002002300020FC3C00201A
:102CD000003D0020E9260008C8050020A1260008C4
:102CE000C52600088A42E2D294F82C00824203D220
:102CF0000021094A1170DAE792FBF0F100FB112282
:102D0000002AD4D1044A0121F4E703221A724FF4B5
:102D10004052024B1A80DCE650120020FA3C0020A0
:102D2000F8B52A4E3468237A032B01D0052B44D101
:102D3000A369B3B1258AA5B1A28A954228BF1546D9
:102D400028469847238A07465B1B2382638A002014
:102D50002B44638200F000F92A460146384600F011
:102D60009FF8238A53B100214FF44052184B084674
:102D70001A8000F0FFF83022164B1A80228AA18AAE
:102D80003368914209D803221A7233681B7A326879
:102D90001372BDE8F840FFF743BE0AB10522F3E71E
:102DA000062119720C4B19680C4B89B20B445B005D
:102DB0001A603022074B1A80E7E7072B03D1084B34
:102DC0001B68DB6898470823E1E700BF083D002047
:102DD000FA3C0020FC3C0020505C00400230002007
:102DE000003D0020002210B50C4B1C78A24204D3F9
:102DF0000B4B40F08000186010BD02F1805303F5CA
:102E0000B8539B00196821F4E04121F070010904D6
:102E1000090C114319600132E8E700BFC805002022
:102E20004C5C004010B5134C23681A7A022A01D07A
:102E3000042A09D1FFF79CFC23681B7A22681372CD
:102E4000BDE81040FFF7ECBD062A10D15A78052ADC
:102E500009D11A78520606D19878FFF7C3FF064BBE
:102E60001B681B6A9847054B1B689B68984708239B
:102E7000E4E700BF083D0020043D0020003D0020A5
:102E8000704701F10051013201F5405152104900E3
:102E900002B9704730F8023B013A21F8043BF7E7EA
:102EA000002310B501F10051013201F540515210DB
:102EB00049009A4200D110BD51F8234020F8134038
:102EC0000133F6E7800000F1804000F5B840036868
:102ED000CA0623F4E04323F040039BB248BF83F0CB
:102EE00010038A0648BF83F0200303607047800008
:102EF00000F1804000F5B84003685B0409D5036821
:102F000023F4E04323F070031B041B0C43F48043C1
:102F100003607047800000F1804000F5B84003680E
:102F20005B0609D5036823F4E04323F070031B0418
:102F30001B0C43F04003036070470000054B1B6807
:102F40009BB203EBC00000F1005000F54050400080
:102F500000887047505C0040044B1B689BB203EB39
:102F6000C000034B03445B0018887047505C00406E
:102F700004300020044B1B689BB203EBC000034BE2
:102F800003445B0019607047505C00400230002031
:102F90000D4B0E4A1B683E299BB203EBC000024456
:102FA0004FEA42020AD94B09C80604BF03F1FF33B6
:102FB0009BB29B0243F40043136070474B08C90760
:102FC00048BF01339B02F7E7505C00400630002009
:102FD00013B504468DF8071001220DF107012046B4
:102FE000FEF7DDFE0028F7D002B010BD38B505466B
:102FF0004C1E14F9011F01B938BDC9B22846FFF7AC
:10300000E7FFF6E708B5134B03221C6801212046B1
:10301000FEF784F8002301211A46B2F5007F0CD098
:1030200072B1B3F5007F01D100230A449A420CD952
:103030000225206805610133EFE74FF0FF31F0E72B
:10304000B3F5007F4FF00101EED020684FF400355A
:10305000F0E700BF1046030808B5034B0BB100F0C2
:1030600047F862B6FFF7CEFFF130000808B5044B11
:1030700023B100F05DF80349FFF7B8FFFFF7ECFF5D
:1030800031310008FB460308FDF710B908B500F020
:10309000A1FF01F067F8FCE729F0A0B829F0A6B875
:1030A00032280BD8064B03EB001043681A68437BA9
:1030B000343203F18043013B42F82310704700BFD4
:1030C000A042030838B50C460546072104EB04244A
:1030D00000F046F8A1B22846BDE83840FFF7E0BF4F
:1030E000002203685B0103F18443C3F800217047A9
:1030F0004FF0FF3310B50A4C0A48C4F88030C4F8CA
:103100008430FEF7EDFA0848FDF766FD0748FEF744
:1031100005FF4FF4002323604FF48013236010BD9C
:1031200000E100E041170008E1300008691D0008D7
:1031300010B5094B094C18680B220221FDF7EEFF70
:103140002068FEF7E1FD20684FF416520021FEF7DB
:10315000C8FE206810BD00BF0C460308880200208E
:10316000322838B53BD8082939D8DFE801F00529DD
:10317000171A1D201723260000240322184B0001D4
:103180001D18297B1858FDF7C9FF686838B3697B9B
:10319000CCB1BDE838400122FEF794BB00240422E4
:1031A000ECE700242246E9E700240922E6E70024B0
:1031B0000822E3E701240B22E0E701240F22DDE7E8
:1031C00000240722DAE702684B1E02F14042203257
:1031D0009B0003EBC2039B0003F184431C6038BDDA
:1031E000A042030808B501211048FDF709FA0221A1
:1031F0000F48FDF705FA03210E48FDF701FA0421F7
:103200000D48FDF7FDF905210C48FDF7F9F90621F8
:103210000B48FDF7F5F907210A48FDF7F1F9BDE87C
:10322000084008210848FDF7EBB900BF5412002000
:10323000581200205C12002060120020641200204E
:10324000681200206C1200207012002032280DD865
:10325000074B000119181B58097B1B689A6801234A
:103260008B40134214BF012000207047002070479C
:10327000A0420308322810B50ED8084B00011C18D4
:103280001B58B1FA81F11A680123207B4909834058
:10329000090103FA01F1116110BD00BFA04203084A
:1032A00008B129F031BC704710B5044628B129F0A7
:1032B00033FC90FBF4F303FB1404204610BD88425A
:1032C00010B5044603DA081AFFF7EEFF044420465F
:1032D00010BD00000A4A0B4B11689B6800BF00BF7D
:1032E00012688A42F6D14820C3F58C3303F5A073E7
:1032F000B3FBF0F34FF47A7000FB0230704700BF6D
:10330000F43C002010E000E038B50446FFF7E2FF8F
:1033100005465CB1FDF7C8FBFFF7DCFF401BB0F5CD
:103320007A7FF6D3013C05F57A75F5D138BD28B121
:103330000C234343013B18460138FDD87047000079
:103340000449054BCA6822F4E0621204120C1343CC
:10335000CB60704700ED00E00003FA05704770474E
:103360000120704713B5104C20461DF0A0F82046F0
:1033700004211DF035F8204601220C491DF034F8D7
:10338000002301220A4900932046A0231DF092F851
:1033900020461DF085F820461DF074F8204602B046
:1033A000BDE810401DF075B87812002020470308D2
:1033B00076120020242805D1034B044A1B88C3F34E
:1033C00089031380704700BF76120020741200201A
:1033D000044B03EB00135B6813B1C0B2FFF772BE7E
:1033E000704700BFA0420308FEF70CB8024B034829
:1033F00019681CF0F3BF00BF1C00002078120020E9
:1034000010B5074C032294F84C10206CFDF786FE93
:10341000236C94F84C101A6801238B40136110BD83
:10342000A0420308062838B58CBF00250A4B0B4C78
:1034300098BF1D5C2046E46600F03FF9294620460F
:1034400000F04DF92046012100F056F92046BDE874
:103450003840002100F05DB92147030888120020A0
:10346000FF21014800F06AB9881200200B4602468D
:103470000021014800F01ABA8812002001460148D4
:1034800000F09CBA8812002070B50D46064C01462B
:10349000204600F093FA29462046BDE870400123FB
:1034A0004FF4007200F07EBA8812002001398B00C0
:1034B0000121026899405160704703689A6891073A
:1034C000FCD59A681206FCD47047436823B1417B4F
:1034D00000221846FEF7F6B970470000172806D0FC
:1034E000182806D01628044818BF00207047034843
:1034F00070470348704700BFB4950308B8950308A8
:10350000BC9503082DE9F04F814687B000798A46C3
:10351000FFF7E4FF60B30578174C46782D012B19AF
:103520008778360190F8038006EB040B1846059364
:1035300004EB0717FFF7C9FF5846FFF7C6FF04EB78
:1035400008183846FFF7C1FF4046FFF7BEFF98F85E
:103550000C20059B51461B7B03923A7B4846029206
:103560009BF80C200192325900922A59FEF74EF82E
:1035700007B0BDE8F08F00BFA042030810B50C46AD
:10358000FDF74EFF90B10228094B88BF00230022AF
:103590005B089C42D0B205D20132072A4FEA53039E
:1035A000F7D11046034B0344187B10BD024BEEE7E6
:1035B00000A24A04B4950308005125022DE9F04108
:1035C000034604466C302C4D00221D6001255A73C1
:1035D0001D735A60C3E9072224339842F3D1242291
:1035E0004B1E02FB03430229E366DFF8AC80234E47
:1035F00039D003293CD0A94201D1214B1C60214B79
:10360000214F1B68216823611879FFF7B7FF3B68DA
:103610000225A36103236375D8F80030A0606363BB
:103620002575616A1879FFF7A9FF3B68E062E363DB
:10363000052384F83930042384F838303368A16CCA
:10364000A3651879FFF79AFF104B00221B682065CD
:103650002366012384F85C30E36E84F85D50DA73EE
:103660002046BDE8F081D8F800306363084BC5E719
:103670003368A365074BC1E700093D0068010020DE
:10368000F81200206001002060000020640000208B
:10369000FC1200200013002064010020C06E037B98
:1036A0004268012B0CBF0023802342F44072134375
:1036B000017A427B0069FDF789BF10B50446C36EED
:1036C0001869FDF758FFE36E01211869FFF71AFF2B
:1036D0002046FFF7E3FF0122E36EDA7310BDC36EED
:1036E0009960C36E01F038011B691A68136823F0F2
:1036F0003803194311607047C36E1973C36E1B6999
:103700001A68136823F0800309B943F0800313603B
:103710007047C36E5973C36E01F003011B691A68C9
:10372000136823F00303194311607047C36E1B69CC
:103730001B68D960C36E1869FFF7BFBE10B5C36EB2
:103740001C6923682046DA68D960FFF7B6FE236853
:10375000D868C0B210BD0000F0B50546C36E85B094
:10376000986917460E46FDF766FAE86E4468017DD3
:10377000A4F500635C425C4103691A688223CDE9C9
:103780000143009723460C328069FDF797FAE86EF3
:103790000369417D1A68C6B91023CDE901430D4B79
:1037A000009323460C328069FDF788FAEB6E002205
:1037B000597D9869FDF742FA0322EB6E197D9869ED
:1037C00005B0BDE8F040FDF739BA90230096CDE989
:1037D0000143E6E72847030870B504460D4611B9D2
:1037E0000025284670BDC36E1A6912689168CE071D
:1037F00048BFD2680422DA73C36E2A46197D9869DD
:10380000FDF728FAE36E2A46597D9869FDF722FAFA
:10381000E36E197D9869FDF739FAE36E597D986971
:10382000FDF734FAE36E1869FDF7E2FEE36E1869FE
:10383000FDF7D2FEE26ED369002BD1D193691A490C
:103840001E68537D0D68013B9B00DBB23068D84099
:10385000800727D40868401B6428F7D9022510691F
:10386000FFF72BFEE36E1869FDF7BCFEE36E1869E7
:10387000FDF7C4FEE36E597D9869FDF713FAE36E18
:10388000197D9869FDF70EFAE36E197D9869FFF7C7
:103890000DFEE36E597D9869FFF708FE0122E36E85
:1038A000DA739EE70025DAE7F43C002038B50446D9
:1038B0001D46FFF751FF29462046BDE83840FFF777
:1038C0008BBF7FB5054614460E46C36EE40198696A
:1038D000FDF7B1F9E86E44F012044368417DA3F5A9
:1038E00000625342534102691268CDE901340096E7
:1038F0000C328069FDF7E2F90022EB6E597D986980
:1039000004B0BDE87040FDF799B9000070B50446F9
:103910000D4611B90025284670BDC36E597D9869C2
:10392000FFF7C4FDE36E2A46597D9869FDF792F9C9
:103930000322E36EDA73E36E597D9869FDF7A6F909
:10394000E36E1869FDF748FEE26E136A002BE1D1C1
:10395000936913491E68537D0D68013B9B00DBB2E0
:103960003068D840800719D40868401B6428F7D90C
:1039700002251069FFF7A1FDE36E1869FDF732FE1D
:10398000E36E597D9869FDF78DF9E36E597D98696D
:10399000FFF78CFD0122E36EDA73BCE70025E8E750
:1039A000F43C002038B5044615461A46FFF789FF57
:1039B00029462046BDE83840FFF7A8BF08B5FFF705
:1039C000B5FE012008BD000001210148FFF7F6BD4A
:1039D00088120020084B186803F178420749A2F5C5
:1039E0007C325050064A04339342F4D10022054BF6
:1039F00001201A70704700BF00F003080413002074
:103A0000000004080423002070B5164D2C783CB348
:103A10001CF0D0FC14481CF085FC052805D01CF0D7
:103A2000D5FC00232B70204670BD10481CF07AFC9A
:103A30000528F4D10C4E0E4A06F17843A3F57C33E9
:103A4000D15A30461CF090FC052804D000241CF00C
:103A5000BDFC2C70E7E7074B02369E42EBD1DEE758
:103A60000124E0E70423002000F0030800F8030825
:103A70000413002000000408F8B505460024944211
:103A800006D0094E0F5D2868264437540134F6E706
:103A90000120064A1070A2B2184611F07BFC2B6878
:103AA00000201C442C60F8BD0413002004230020D7
:103AB00070B515469DF8102004465AB901680A4AA7
:103AC0001144AAB2184611F065FC226800202A446D
:103AD000226070BD0022AA42F3D0034E2068164433
:103AE000305C88540132F6E7041300200228F8B550
:103AF00006460D4639D0052836D100262C4C022228
:103B0000236801215B0103F184431E602046FDF719
:103B1000D9FE28494FF6FF70B1FBF5F11122814221
:103B200028BF014623685E629A62D8629A6920467D
:103B300022F0FF029A6159635B0103F18443012182
:103B4000DE611D4AFDF720FE01213220FDF730FC29
:103B5000012223685B0103F18443C3F880222368B8
:103B60005B0103F184431A60F8BD0027134C024641
:103B7000236801215B0103F184431F602046FDF7A8
:103B8000A1FE40F2E73223680D495F62B1FBF5F117
:103B90009A624FF6FF72914228BF1146DA622046C0
:103BA0005963084A0121FDF7EFFD31461C20CDE79E
:103BB0001802002000093D0091B70108AC01002067
:103BC0004019010025C7010802280CD005280CD196
:103BD000074B1B685B0103F18443D3F88401003079
:103BE00018BF01207047034BF3E70020704700BF68
:103BF00018020020AC010020013807289ABF024BB0
:103C000053F82000002070472C470308FDF7C8BB7D
:103C100070470368C9B21B68184700000023054AB3
:103C20009A56824204D00133162BF8D100207047F7
:103C300001207047D948030808B500F0E7FABDE84D
:103C40000840014800F0D0BAC947030808B515F08C
:103C500085F915F0E7F9FE2013F036FFBDE80840BE
:103C600013F010BF054BD3F8D02293F8DC124FF4B9
:103C7000803312688B401361704700BFA042030875
:103C80000E4AD2F8803092F88C101868012303FA9B
:103C900001F109040161D2F81011086892F81C11B1
:103CA00003FA01F109040161D2F8201292F82C22E2
:103CB000096893401B040B61FFF7D4BFA0420308BF
:103CC000044BD3F8D02293F8DC12012312688B4006
:103CD00013617047A0420308012130B4124BD3F89E
:103CE0008020106893F88C2001FA02F202610F48DC
:103CF000027822F001040470D3F81041256893F88B
:103D00001C4101FA04F42C6122F003040470D3F87E
:103D1000204293F82C322468994022F00702216156
:103D2000027030BCFFF7CCBFA0420308FB2B002081
:103D3000044B93F9000001281EBF034B1878C0F311
:103D400080007047E02B00207C3B0020094B93F95A
:103D50000030022B0CD0084B1B78C3F3C00040B1DD
:103D6000064AD07828B1C3F3800080F00100704784
:103D700001207047E02B00207C3B00205C3B0020B2
:103D800010B5FFF7E3FF044660B9084B1860084B15
:103D900018704FF0FF3000F0C5FF0022054B1A608D
:103DA000054B1C60BDE8104016F0F2BB5824002003
:103DB00054240020182C0020442B002010B540F281
:103DC000E9330446013B08D000BF00BF00BF42F604
:103DD0002F22013A00BFFCD1F4E772B640F2E9337A
:103DE000013B08D000BF00BF00BF41F29312013A6F
:103DF00000BFFCD1F4E718F0DBF924B1FFF76CFF4A
:103E0000FFF704FFFCE7FFF75BFFF9E70D46044609
:103E1000164608B518F0CCF900F0F8F9084800F09B
:103E2000E3F908490848002D18BF2946002C18BF9F
:103E3000204611F035F901F087F83046FFF7BEFF54
:103E4000D84703086D470308C948030870B5384BC5
:103E500005461B78032B01D807F03AFE354B364A4E
:103E60001B681468ABB1354909680B44E31A002B91
:103E70000FDB00F0CBF9324B3248196800F0CCF977
:103E80000A213148FFF7C5FE002211461046FFF710
:103E9000BDFF2E4B1B6843B12D4908782D49097889
:103EA00088420ED01268254B1A602B4D01F012FA91
:103EB0002B68E31A002B03DB643414F05DFF2C60E5
:103EC00070BD264A85BB1D4909680B44E31A002BC7
:103ED0002ADB1378002BE8D101231370204AD2F893
:103EE0008010086892F88C1003FA01F101611D48F6
:103EF000017821F001050570D2F810512E6892F872
:103F00001C5103FA05F5356121F003050570D2F85F
:103F1000205292F82C222D68934021F007012B614A
:103F20000170FFF7CDFEC0E700231370BDE700BFAF
:103F30008C28002010230020F43C0020C426002000
:103F4000D02600208C47030894100020EC050020A8
:103F50005E3300205F330020082300200C23002064
:103F6000A0420308FB2B002008B510F0C3FE002080
:103F7000FFF76CFF18F016FA16F0DAFA11F094F960
:103F8000FFF7ECF9044B1B782BB918F087FEBDE85E
:103F900008401AF0DBBF08BDC826002038B5012351
:103FA0000A4C0546237010B1094B1B681D44237849
:103FB00043B125B1064B1B685B1B002B02DAFFF7F0
:103FC000D3FFF4E70023237038BD00BF1423002083
:103FD000F43C002037B5FFF7B3F94D4A136823F0DE
:103FE000E06343F00073136017F0A8FC49494A48A6
:103FF000FCF7F4FA494B4A481B6800F0F5F800F06A
:10400000FFF8FFF7ADF9C507044602D5454800F0B3
:10401000EBF8A00702D5444800F0E6F8610702D5A6
:10402000424800F0E1F8220702D5414800F0DCF8F0
:10403000A30602D53F4800F0D7F8FFF790F93E48B5
:1040400000F0D2F820213448FFF7E3FD3B4800F0B0
:10405000CBF80A213048FFF7DCFD00F0D1F83848F2
:1040600000F0C2F800F0CCF8364800F0BDF800F0DF
:10407000C7F80020FCF7CEF90DF10701091A324804
:1040800000F0D6F84FF4D861304800F0D1F8304C49
:104090000A212148FFF7BDFD10F008FE002011F0B5
:1040A00045F81AF075FE237823B913F0D3FA08B156
:1040B00001232370274C284D216828681CF026FF17
:1040C0006968206060681CF021FFA9686060A068D2
:1040D0001CF01CFFA06013F0D5FC204817F0C0FFB7
:1040E00011F0BCFE16F0F2F913F09AFB16F038FF4F
:1040F000002013F0B9FBFFF78BFD01231A46194688
:10410000184600F0EDFF0122154B1A7003B030BDC8
:104110000400014090D0030094100020F43C0020E3
:10412000F9740308044803080D4803081E480308EF
:104130003048030841480308D2480308524803089E
:104140005B4803088C480308A3480308B2480308E7
:104150000D230020340600201C2C002047370020AF
:104160000F23002010B5FFF7FFFE1AF061FE164B7B
:104170001B785B0617D51AF02DFA07F091F9FFF7B7
:1041800065FD16F01DFA18F013F80021084617F027
:104190000FFE0120002117F00BFE00220B4B0C48F4
:1041A0001A7007F019FA0B4C2378102B05D10A4826
:1041B00007F022FA08B10123237007F00FFBBDE8D6
:1041C000104013F0B3BB00BF7C3B0020F005002083
:1041D000F84703080F230020FE470308014819F0A1
:1041E000BDBF00BF0E23002010B5044614F9011B0B
:1041F00019B10248FFF70DFDF8E710BD941000203B
:104200000148FFF7F1BF00BF014903080148FFF76C
:10421000EBBF00BFFA48030810B50C46FFF7E4FFF8
:104220002146BDE810400148FCF7A8BA94100020D0
:1042300010B50C46FFF7D8FF2146BDE810400A2212
:104240000148FCF701BB00BF9410002010B50C46DC
:10425000FFF7CAFF2146BDE810400A220148FCF7DB
:1042600006BB00BF9410002013B50C46FFF7BCFF3F
:1042700020461CF0BBFA02230246009302480B467C
:10428000FCF7CEFB02B010BD9410002010B50C4618
:10429000FFF7AAFF2146BDE810400A220148FCF7BB
:1042A000FDBA00BF9410002010B50446013CE4B2F2
:1042B000FF2C04D020210248FFF7ABFCF6E710BD2D
:1042C00094100020034A044B002814BF10461846DF
:1042D000FFF78ABFAE530308BA52030808B5FFF7C9
:1042E000F1FF0A210148FFF794FC08BD941000205B
:1042F000034A044B002814BF10461846FFF774BF4A
:10430000EF480308F4480308F8B507460E4615467B
:104310001846069CFFF768FF39680B48FFF7A4FFB3
:1043200031680A48FFF7A0FF29680948FFF79CFF9A
:1043300024B12046BDE8F840FFF756BF0A210548E2
:10434000FFF767FCF8BD00BF784703087F47030805
:10435000864703089410002010B50446322C06D975
:104360003220323CFEF7D0FF18F01CF8F6E720466A
:10437000FEF7CAFFBDE8104018F014B838B5094C74
:1043800025882DB2002D0CD0CCBF0121002117F0C3
:1043900055FA2388002DCCBF03F1FF3301331BB244
:1043A000238038BD1A2300200A4B1B7823FA00F023
:1043B000C3070DD5084A89B213880B441380074AF6
:1043C00013880B441380064B1A88114409B21980D4
:1043D000704700BFFB2B002018230020162300206D
:1043E0001A2300200A4610B5074B044603EB80034E
:1043F000596910681CF092FE1DF06CF801B220465D
:10440000BDE81040FFF7D0BFAC3300202DE9F74FD7
:104410001F4643001D18404C01936B18884654F802
:1044200023100090084616461DF03EF800286FD075
:10443000009BF2B2D618F6B23244FBB2D2B206EB0F
:10444000460003EB080102EB4202C9B200EB080789
:1044500002EB08060B4454F827B054F82670DBB280
:104460006E1801441D4454F82190134439463846CF
:1044700054F826A054F8256054F823501DF014F881
:1044800000B10027594658461DF00EF800B1BB4652
:10449000314630461DF008F800B10026514650461E
:1044A0001DF002F800B1B246294628461CF0FCFF78
:1044B00000B10025494648461CF0F6FF00B1A94668
:1044C000DDE9002359461344584698441CF01EFD6C
:1044D00039461CF019FD5146074650461CF016FDA2
:1044E00031461CF011FD014638461CF00FFD4946CF
:1044F000064648461CF00AFD29461CF005FD01460B
:1045000030461CF003FD05491CF0BCFE44F82800B1
:1045100003B0BDE8F08F00BF6C23002000004040D6
:1045200000EB4000024B014453F82100704700BFEC
:104530006C230020C0EBC000024B014453F8210063
:10454000704700BF902300202DE9F84305464FF047
:104550007E500C461CF0D8FC2146064620461CF036
:10456000DDFD2E4907461CF0D9FD01464FF0804085
:104570001CF0CAFC2A49804620461CF0CFFD394673
:104580001CF0CCFD014640461CF0C0FC69681CF0E4
:10459000C5FD2968804604F100401CF0BFFD31468E
:1045A000814630461CF0BAFD014648461CF0B6FD77
:1045B000014640461CF0AAFC4FF08141804620464F
:1045C0001CF0ACFD4FF07E511CF0A0FC144981465C
:1045D00038461CF0A3FD014648461CF095FCA9682E
:1045E000814620461CF09AFD014648461CF096FD87
:1045F000014640461CF08AFCE968044638461CF037
:104600008DFD31461CF08AFD014620461CF07CFCE5
:104610004FF07C511CF082FDBDE8F8830000A04003
:1046200000004040F8B5012500210123C5F1020733
:10463000FFB281F001044E1C1A4621463846FFF7AE
:10464000E5FE01234FF0FF3221462846FFF7DEFE4C
:104650004FF0FF33012231463846FFF7D7FE4FF0C7
:10466000FF3331461A462846FFF7D0FE022E4FF0A0
:104670000101DAD1022D00D1F8BD3546D4E70000A2
:1046800010B50548FFF7B0FDBDE810400322034B0D
:104690001146104600F0D4BA074903082145000826
:1046A00010B50548FFF7A0FDBDE810400721034BFA
:1046B0000522084600F0C4BA204903083545000821
:1046C00070B50C46054610B1042823D10225601EA2
:1046D000C3B2022B0ED8244E05EB4505054456F80F
:1046E0002510023408461CF011FC56F824101CF06A
:1046F0000BFC70BD2146681CFFF7E2FF2146054612
:104700000220FFF7DDFF2946044608461CF0FEFBA9
:104710002146ECE7461E11B104291DD10224F3B253
:10472000022B0DD806EB46010F4D0C4455F8241012
:1047300008461CF0EBFB0C2303FB06567168D6E71A
:10474000611C2846FFF7BCFF022106462846FFF7FA
:10475000B7FF31460446D8E706EB46064C1E024B2F
:10476000264453F82600C4E76C2300202DE9F04FBF
:10477000464C8FB0464920681CF084FD44490546EC
:1047800060681CF07FFD434B044658601D600021AB
:1047900028461CF057FE002874D129464FF07E5061
:1047A0001CF070FD0546002120461CF04BFE002841
:1047B0006AD121464FF07E501CF064FD0024364B38
:1047C0001D6058600025E3B2029304EB4409002603
:1047D0000027F3B2314A039306EB090302EB83038C
:1047E0000493F8B20EB1022C3AD00FB1022D37D09B
:1047F0001CF03CFC26491CF045FD019003981CF080
:1048000035FC23491CF03EFDA84683464FF0000AC4
:104810000023029A4046D118C9B20593FFF750FF12
:10482000059B0DF1280C4CF823000133042BF0D12B
:1048300059466046FFF788FE06AB43F82A000AF1A6
:10484000010A08F10108BAF1040F5FFA88F8DFD114
:1048500018460199FFF778FE1C237B43049AD05039
:104860000137032FBDD10136032EB1D10135EDB291
:10487000032D09F11509AAD10134032CA2D10FB0DF
:10488000BDE8F08F00258EE7002097E75423002035
:10489000000040405C2300204C2300209023002097
:1048A00038B5114C0021256828461CF0CBFDB8B95D
:1048B00029464FF07E501CF0E5FC05466468002157
:1048C00020461CF0BFFD68B921464FF07E501CF019
:1048D000D9FC064B1D605860BDE83840FFF746BF65
:1048E0000025EBE70020F4E75423002044230020B8
:1048F0002DE9F74F674E0546316800681CF004FB50
:104900007168044668681CF0FFFA634D81462146D1
:1049100028681CF097FDDFF8AC81604F28BB604B26
:104920002C60196820461CF0F9FB064625F0B2F809
:10493000002104461CF090FD002831D15949204641
:104940001CF0A8FD00B1574C214630461CF0DCFAA3
:10495000C8F8000020461CF0BDFD40B238700130A0
:104960000628A8BF0620504B1870494668681CF0FE
:1049700069FD4E4E97F9004096F900B0DFF848A166
:1049800080B1A34536D1DAF80010D8F800001CF049
:10499000C5FB474B19681CF0B9FA03B0BDE8F08FAE
:1049A0000024D1E73E4BC5F80490596848461CF0F6
:1049B000B5FB054625F06EF8002181461CF04CFD44
:1049C000002864D1374948461CF064FD08B1DFF87F
:1049D000D490494628461CF097FAC8F80400484687
:1049E0001CF078FD40B2787001300628A8BF062080
:1049F0002D4B5870A34597F901302E4DDFF8CC9020
:104A000003D196F901209A4225D03A88DFF898B070
:104A10003280C4EBC404284EE2189BF9017056F8AA
:104A200022103C44296056F8240001931CF06CFAD3
:104A30009BF90020019BC2EBC202134456F82310DD
:104A40001E4B1744C9F80000196056F827001CF0E7
:104A50005BFA1B4B1860D8F80460D9F80010304698
:104A60001CF05CFB29681CF051FA0446104B1860DE
:104A7000134B304619681CF051FB104B19681CF0A1
:104A800045FA21461CF040FACAF800007BE74FF0D7
:104A900000099EE764230020F40500204023002045
:104AA0004C2300200000A04034230020FC050020FF
:104AB000202300202C2300209023002030230020DE
:104AC00028230020382300201C230020242300203A
:104AD00010B5064B002118684FF001041CF0B2FC21
:104AE00008B14FF0000404F0010010BD5423002071
:104AF00038B5054628B1104B002118681CF0A2FCFF
:104B0000C8B90E4C2378AB4215D014F08BFA0C4880
:104B1000FFF7EEFE237843B10A4814F0A7F900230B
:104B20002370BDE8384012F0ADBF01230548237063
:104B300014F0C4F9F5E738BD542300205C3300209D
:104B40004C490308340600202DE9F041244D044669
:104B50000F46014628681CF075FC00283DD1214B0A
:104B60001E78FFF7C5FF002120461CF093FC00B91A
:104B700000242C601C4920461CF082FC20B11B49FB
:104B800020461CF073FC30BB21464FF07E501CF0D9
:104B900079FB174B174A1860174B1A60EEB1174C88
:104BA0000120D4F800806668A568FFF7A1FFA7B1CF
:104BB000414620681CF046FC48B1314660681CF054
:104BC00041FC20B1A16828461CF03CFC28B9BDE896
:104BD000F04112F03FBF0020DBE7BDE8F08100BFED
:104BE000383300205C330020BD3786B5BD378635AD
:104BF00068330020F0FF79C4542C002034060020D4
:104C000008B50020FFF774FF0023094A53601360C2
:104C1000084A53601360084B084A1A605A609A6049
:104C2000DA601A615A619A61DA611A6208BD00BFDE
:104C300064230020542300206C2300200000C07F48
:104C40002DE9F74F0446894617469A460025A542A6
:104C50000FD0EBB20A2B34BF032002203844C0B27D
:104C6000FFF722FB29460A222D48FBF7EDFD01350F
:104C7000EDE70A212A48FEF7CCFF0024A1455FFAA0
:104C800084FB46D0092C03D820212548FEF7C1FF1C
:104C90000A2221462248FBF7D7FD0026AE425FFAE2
:104CA00086F830D020211E48FEF7B3FF5946404613
:104CB000D047014680461CF0F7FB98B900214046DA
:104CC0001CF0DEFB18B12B211548FEF7A2FF404671
:104CD0001BF08CFD009702460B461148FBF7A0FE27
:104CE0000136DBE74FF000085FFA88F3BA1C9A42FE
:104CF000F6DB002B14BF3D2120210948FEF789FF78
:104D000008F10108F0E70A210548FEF782FF0134A7
:104D1000B4E70A210248FEF77CFF03B0BDE8F08F3C
:104D200094100020114B10B41870C3B21F2B104AFE
:104D300015D8104991F900408442DCBF01330B7053
:104D40000D4B1B68C34003F001030028137008DB00
:104D5000431C0A4A0A49002010BC10F089B90023FC
:104D6000F3E7002010BC10F0E1B900BFFE05002001
:104D70005C240020542400205824002058490308B3
:104D800068490308C3B21F2B10B50DD8012207498B
:104D900002FA00F30C6823430B60054B93F90030D3
:104DA000834204BF034B1A7010BD00BF582400207B
:104DB000FE0500205C240020C3B21F2B0FD8012366
:104DC000074903FA00F20B6823EA02030B60054B64
:104DD00093F90030834202BF0022034B1A707047E0
:104DE00058240020FE0500205C24002000214FF004
:104DF0007E520C4B10B519700B4B4FF082401A606D
:104E00000A4A0B4C5A60002218619A60DA605C61B1
:104E10009A61D861074B1A60074B1970074B1A60EB
:104E200010BD00BF682400206C2400200000344224
:104E300000005041602400208C24002064240020C5
:104E40002DE9F74F2C4E80463378834231D02B4DDD
:104E50002B4CDFF8BCB094E80F0085E80F00294B1D
:104E6000DBF800C0DB6AD94600932546DFF8A4A032
:104E7000254FB8F1000F1FD00BF10400CAF800C095
:104E800013F0F2F83C68002120461CF0DBFA70B108
:104E9000DBF808501D4928461CF0FCFA38B12946B9
:104EA00020461CF033F83860684613F0DDF886F8C9
:104EB000008003B0BDE8F08F0024386821461CF064
:104EC000C1FA18B968463C6013F0CEF8D9F80C70F6
:104ED000002138461CF0B6FA30B9E86839461CF0B3
:104EE00013F8E86012F0D8FDD9F8103002A8CAF81B
:104EF000004040F8043DD8E78C240020082C002016
:104F000034060020AC330020602400200AD7233C64
:104F10006C24002064240020FFF768BF38B50546E4
:104F20000C460748FFF760F92846FFF75DF92CB1FA
:104F3000BDE838400A210348FBF7FCBA38BD00BF82
:104F40006E4903089410002001210148FFF7E6BFD5
:104F50007849030801460148FFF7E0BF814903088B
:104F600001210148FFF7DABF8E49030801210148FA
:104F7000FFF7D4BF8749030810B50B6804461B69C7
:104F8000084698472379C0F3400210F01E0F60F3E3
:104F9000000362F3410314BF0122002262F3820383
:104FA00020602371204610BD08B558210148FEF746
:104FB00030FE08BD9410002008B559210148FEF7C5
:104FC00028FE08BD9410002008B55A210148FEF7BC
:104FD00020FE08BD94100020F7B53C2400680D4663
:104FE000B0FBF4F74FF46161B7FBF4F3B0FBF1F100
:104FF00004FB13738EB2A2B11821B6FBF1F2104C70
:1050000001FB1266B0FBF4F400932246B3B20D49E3
:10501000284627F073FF0A2C34BF0820092003B06C
:10502000F0BD632E8AB205D80749284627F066FFEF
:105030000520F4E70549284627F060FF0620EEE743
:1050400080510100674A03086C4A0308784A030844
:1050500010B504460D48FFF7C7F8102221680C4828
:10506000FBF726FC23799A0702D50A48FFF7BCF81C
:1050700023795B0702D50848FFF7B6F8BDE8104072
:10508000002206481146FEF7C1BE00BFD4490308FE
:1050900094100020EF490308004A0308144A03084B
:1050A00038B505461AF067F80446064928461AF04E
:1050B00014FB284600211AF053F884F00100C0B216
:1050C00038BD00BFFFFF0F0010B5044681F001019D
:1050D0001AF046F82046BDE8104000211AF0FDBA4B
:1050E000F8B50D4617461E46002800F09780534835
:1050F000FFF77AF8FFF758FF5148FFF775F8514866
:105100001AF079FB0446002800F086804E48FFF72D
:105110006BF8012C7ED04D484D4B022C18BF184621
:10512000FFF762F80A214B48FEF773FD003418BF01
:1051300001240DB34148FFF757F8FFF73DFF404802
:10514000FFF752F844481AF056FB0546002869D08C
:105150003D48FFF749F8012D62D03C483C4B022DF9
:1051600018BF1846FFF740F8002D18BF01340A2178
:105170003848FEF74EFDE4B20FB33048FFF734F87D
:10518000FFF722FF2E48FFF72FF834481AF033FBC1
:10519000054600284AD02C48FFF726F8012D43D0B9
:1051A0002A482B4B022D18BF1846FFF71DF8002D7B
:1051B00018BF01340A212748FEF72BFDE4B216B3CD
:1051C0001E48FFF711F845212248FEF722FD1C4832
:1051D000FFF70AF822481AF00EFB054650B31A48AA
:1051E000FFF702F8012D23D01848194B022D18BFE4
:1051F0001846FEF7F9FF002D18BF01340A211548A3
:10520000FEF707FDE4B2BCB1BDE8F8400021154847
:105210000FF05ABF144883E70D4881E7044688E73A
:1052200011489FE70A489DE70F48BEE70848BCE7DA
:105230000D48DEE70648DCE7F8BD00BF2D4A03084D
:10524000364A030814350020464A0308294A030851
:10525000214A03089410002068350020BC35002046
:10526000C0340020524A0308244A030830B587B0EE
:10527000054610F005FE124A124C904294BF0022DF
:105280000122019002A901A8FFF7A6FE0A212046EB
:10529000FEF7BFFC02A92046FBF770FA0A48FEF7AA
:1052A000A3FF45212046FEF7B4FCB5F84810074897
:1052B000FEF7BEFF0648FEF797FF07B030BD00BF00
:1052C0008051010094100020BA7403089549030826
:1052D000B849030830B5C14BC1491B680A6889B099
:1052E0009A1A002AC0F2DF81BE4C03F5FA730B60F4
:1052F00002A82146FFF740FE029B013B033376D80C
:105300009DF80C2094F84B30900740F1CE8101338A
:1053100084F84B3094F84B30092B08D90A21B24855
:10532000FEF777FCFFF740FE02A8FFF791FE9DF81D
:105330000C30D90725D594F84A3013BB10F0A0FDE6
:10534000AA4A08AB904243F81C0D94BF00220122E8
:10535000184604A9FFF740FE0A21A348FEF759FCAE
:1053600004A9A148FBF70AFAA148FEF73DFFFFF7A1
:105370001BFEA048B4F84810FEF75AFF9E48FEF7FF
:1053800033FF9DF80C0010F0010007D094F84A306C
:10539000042B40F28F8193481AF023F89DF80C30CB
:1053A00094F84A2013F0010300F0868101230132B2
:1053B00084F84A2084F84C30C8B18A481AF011F8B1
:1053C000A8B1B4F84850323DADB2322D0FD92946BC
:1053D0008448A4F848501AF097F9FFF7E5FD2946EC
:1053E0008648FEF725FF0A217F48FEF712FC844C11
:1053F00002A82146FFF7C0FD029B013B033376D88C
:105400009DF80C2094F84B30920740F15B810133FA
:1054100084F84B3094F84B30092B08D90A21724894
:10542000FEF7F7FBFFF7C8FD02A8FFF711FE9DF896
:105430000C30DB0725D594F84A3013BB10F020FD63
:105440006A4A08AB904243F81C0D94BF0022012227
:10545000184604A9FFF7C0FD0A216348FEF7D9FBEF
:1054600004A96148FBF78AF96148FEF7BDFEFFF722
:10547000A3FD6048B4F84810FEF7DAFE5E48FEF778
:10548000B3FE9DF80C0010F0010007D094F84A30EC
:10549000042B40F21C815A4819F0A3FF9DF80C30F0
:1054A00094F84A2013F0010300F013810123013224
:1054B00084F84A2084F84C30C8B1514819F091FF63
:1054C000A8B1B4F84850323DADB2322D0FD92946BB
:1054D0004B48A4F848501AF017F9FFF76DFD29461C
:1054E0004648FEF7A5FE0A213F48FEF792FB454CD1
:1054F00002A82146FFF740FD029B013B033300F267
:105500008F809DF80C2094F84B30950740F1E78090
:10551000013384F84B3094F84B30092B08D90A2119
:105520003148FEF776FBFFF74FFD02A8FFF790FD2D
:105530009DF80C30D80725D594F84A3013BB10F0ED
:105540009FFC2A4A08AB904243F81C0D94BF0022EE
:105550000122184604A9FFF73FFD0A212248FEF761
:1055600058FB04A92048FBF709F92148FEF73CFE47
:10557000FFF72AFD1F48B4F84810FEF759FE1E48F1
:10558000FEF732FE9DF80C0010F0010007D094F8F1
:105590004A30042B40F2A8801A4819F022FF9DF8E7
:1055A0000C3094F84A2013F0010300F09F8001238F
:1055B000013284F84A2084F84C3088B3114819F03D
:1055C00010FF68B3B4F84850323DADB2322D27D940
:1055D00029460C48A4F8485016E000BFF43C0020CF
:1055E00090240020143500209410002080510100E8
:1055F000BA74030895490308B8490308BD4903086C
:1056000068350020BC3500201AF07EF8FFF7DCFC7E
:1056100029463E48FEF70CFE0A213D48FEF7F9FAFE
:105620003C4C04A82146FFF7A7FC049B013B033335
:1056300039D89DF8142094F84B3091075CD501338C
:1056400084F84B3094F84B30092B0AD90A213048A2
:10565000FEF7DFFA45212E48FEF7DBFA04A8FFF734
:10566000F7FC9DF81430DA0705D594F84A3013B9E1
:105670002848FFF7FBFD9DF81430DB0706D594F8AA
:105680004A30042B02D9234819F0ABFE9DF81430A0
:1056900094F84A2013F0010332D00123013284F838
:1056A0004A2084F84C3009B030BD002B3FF432AEB4
:1056B000013B2DE6002071E6002A3FF47DAE84F820
:1056C0004A3079E6002B3FF4A5AE013BA0E600206E
:1056D000E4E6002A3FF4F0AE84F84A30ECE6002B12
:1056E0003FF419AF013B14E7002058E7002A3FF4CC
:1056F00064AF84F84A3060E7002BA3D0013B9FE7FA
:10570000002AD0D084F84A30CDE700BFBD49030855
:1057100094100020C034002038B50C4605460D49D1
:1057200020461BF0ADFE98B10B4920461BF09EFEB3
:1057300070B12D68094928461BF0A2FE40B1084906
:1057400028464FF001041BF091FE00B90446E0B278
:1057500038BD00BFA30100C007001E4317B7D1B872
:10576000070061434138C3B2192B31D8194A106878
:10577000D84010F001002CD0174AD25C32B3174B3E
:1057800019688B188A56A2F13001C9B2092906D9C5
:105790002E2A08D15A78303A092A88BF0023104AA5
:1057A0000120136070472D2A01D02B2A0ED193F9C6
:1057B0000110A1F13002D2B2092AF0D92E2905D167
:1057C0009A78303A092A88BF0023E8E70023E6E701
:1057D00000207047F4260020D6260020D026002086
:1057E000F826002008B5FFF7BDFF20B1024B18686E
:1057F000003018BF012008BDF826002038B50D4B39
:105800001868A8B10246154612F9014B34F0200180
:105810000AD0452C01D0652CF5D1002129701868DB
:1058200029F044F82C7038BDBDE8384029F03EB866
:105830000020F8E7F8260020034B186818B10A2268
:10584000002129F013B97047F826002038B5054625
:105850000C46FFF7C7FFA0B10E4B1B6813B901241C
:10586000204638BDFFF7E8FF002810DBFFF7E4FF14
:10587000FF28F4DCFFF7E0FFC0B2041C18BF0124CE
:10588000EEE72846FFF76EFF0028E9D0E7E700249F
:10589000E6E700BFF826002008B5084B187810F09E
:1058A000040009D0632106480FF00EFC01200FF020
:1058B00021F90FF01FF8012008BD00BF8D2B00203B
:1058C0003C4C03084FF6FF732DE9F04F0446894620
:1058D0000025DFF8548185B0038001230026AB400A
:1058E00000934C4F009AF35D134001937ED12846FC
:1058F0001BF0C0FB484BDFF834A1196802931BF082
:105900000DFCDAF800101BF001FB834630461BF05B
:10591000B1FB029B59681BF001FCDAF804101BF084
:10592000F5FA59468246D9F800001BF0EDFA5146C7
:105930000290D9F804001BF0E7FA029B0390194685
:1059400018461BF0EBFB039A0290114610461BF021
:10595000E5FB029B014618461BF0D8FA24F04AF9F1
:105960002E4B59460390186802931BF0CDFA029B08
:105970008346514658681BF0C7FA59468246584636
:105980001BF0CCFB5146834650461BF0C7FB01463B
:1059900058461BF0BBFA24F02DF921491BF072FC8C
:1059A000039A11461BF0B2FA1E4B8246D3F800B0A0
:1059B0004FF07E5158461BF06DFD68B158461BF004
:1059C00089FD01460198FDF77AFC1BF053FB014667
:1059D00050461BF09BFA8246414650461BF03CFD68
:1059E00020B1D04625706670C4F804A00136032E9D
:1059F0007FF477AF0135032D7FF46FAF012320468D
:105A0000627821788B40B95C0B43BB5405B0BDE88C
:105A1000F08F00BF9424002054230020B8240020DD
:105A200000007041C0240020FF4FC34764230020C2
:105A30002DE9F74F294DD0F80090D1F80080484665
:105A4000296817469A461BF0FDFC002842D04146C3
:105A500068684FF001061BF0F5FC00B90646F6B287
:105A60001F4C95E80F0084E80F00DFF884B03F6812
:105A7000DBF8001038461BF0E5FC80B9194B4FF0FD
:105A80007C51D86AA760CBF800701BF047FB0190EF
:105A900001A812F0E9FA95E80F0084E80F00C4F8B5
:105AA0000090C4F80480DAF80010E0681BF02EFAC9
:105AB000E0608EB10B4B0C49186B1BF02FFB019073
:105AC00001A812F0D1FA95E80F0084E80F0003B0A6
:105AD000BDE8F08F0646C3E70448F0E7340600202F
